:100000000C942A000C9447000C9447000C94470071
:100010000C9421020C94F8010C9447000C94730288
:100020000C949C020C944A020C94CF010C94A601EF
:100030000C947C010C9441030C9447000C946A03CB
:100040000C9447000C9447000C9447000C94470014
:100050000C94470011241FBECFE5D8E0DEBFCDBF12
:1000600010E0A0E6B0E0E2E0FAE002C005900D92F8
:10007000A236B107D9F720E0A2E6B0E001C01D9298
:10008000AC3FB207E1F70E94B1000C94FF040C945E
:1000900000000E94DA0480936200E091630081E036
:1000A0008E0F80936300F0E0EA56FF4F80810E943C
:1000B000330308959091630080916200981768F46B
:1000C000E091630081E08E0F80936300F0E0EA56D8
:1000D000FF4F80810E9433030895909163008091C7
:1000E0006200981309C08AE00E9433038091630084
:1000F0008F5F809363000895109263000895E3E991
:10010000F0E081E0818380838283CF010E944804F4
:1001100029E430E046E950E062E370E083E990E0F2
:100120000E94CC04E8E8F0E080E895E2A0E0B0E0CE
:1001300087839087A187B28786E0818314821282A9
:100140001582138288E0808380E486838AE590E0CC
:100150000E94370388E890E00E94C5020E942D04A7
:10016000FDCF0E947F00FC01892BC9F18081813085
:1001700091F028F08230D9F0833029F132C021810A
:100180009AB38281322F3823822F80958923832B43
:100190008ABB80E00895218197B38281322F382372
:1001A000822F80958923832B87BB80E0089521814E
:1001B00094B38281322F3823822F80958923832B19
:1001C00084BB80E00895218191B38281322F38234E
:1001D000822F80958923832B81BB80E0089581E065
:1001E000089581E00895CF93DF9300D000D000D030
:1001F000CDB7DEB7FC011EB81DB86C9A9DB18081E9
:10020000892B8DB99DB18281892B8DB99DB1818159
:10021000892B8DB96F9A838194819093FB00809391
:10022000FA0081E0898390E49A831B828C8380EBBF
:100230008D838FEF8E83CE0104960E94B300CE0192
:1002400001960E94B30078946E9A26960FB6F894A1
:10025000DEBF0FBECDBFDF91CF910895CF93DF9367
:1002600000D000D000D0CDB7DEB7FC011EB81DB85D
:100270008DB18DB99DB18281892B8DB99DB1808160
:10028000892B8DB99DB18181892B8DB96F9A83811D
:1002900094819093FB008093FA0081E0898390EB36
:1002A0009A831B828C8380E48D838FEF8E83CE01B3
:1002B00004960E94B300CE0101960E94B300789488
:1002C0006E9A26960FB6F894DEBF0FBECDBFDF91B3
:1002D000CF910895FC0190916000913031F48FB17D
:1002E00080831092600080E0089581E008959093EB
:1002F000FB008093FA0008951F920F920FB60F92A1
:1003000011242F933F934F935F936F937F938F931A
:100310009F93AF93BF93EF93FF9381E0809360002F
:10032000E091FA00F091FB000995FF91EF91BF91E8
:10033000AF919F918F917F916F915F914F913F917D
:100340002F910F900FBE0F901F9018951F920F9234
:100350000FB60F9211242F933F934F935F936F9398
:100360007F938F939F93AF93BF93EF93FF93E0910E
:100370006E00F0916F00309709F00995FF91EF91B1
:10038000BF91AF919F918F917F916F915F914F91AD
:100390003F912F910F900FBE0F901F9018951F92B5
:1003A0000F920FB60F9211242F933F934F935F93A9
:1003B0006F937F938F939F93AF93BF93EF93FF932D
:1003C000E0916C00F0916D00309709F00995FF9174
:1003D000EF91BF91AF919F918F917F916F915F91BD
:1003E0004F913F912F910F900FBE0F901F90189536
:1003F0001F920F920FB60F9211242F933F934F939A
:100400005F936F937F938F939F93AF93BF93EF937C
:10041000FF93E0916600F0916700309709F009952D
:10042000FF91EF91BF91AF919F918F917F916F91CC
:100430005F914F913F912F910F900FBE0F901F90A2
:1004400018951F920F920FB60F9211242F933F937E
:100450004F935F936F937F938F939F93AF93BF93CC
:10046000EF93FF93E0916400F0916500309709F0FD
:100470000995FF91EF91BF91AF919F918F917F91DE
:100480006F915F914F913F912F910F900FBE0F9001
:100490001F9018951F920F920FB60F9211242F9351
:1004A0003F934F935F936F937F938F939F93AF93FC
:1004B000BF93EF93FF93E0916A00F0916B00309748
:1004C00009F00995FF91EF91BF91AF919F918F91A5
:1004D0007F916F915F914F913F912F910F900FBE40
:1004E0000F901F9018951F920F920FB60F92112424
:1004F0002F933F934F935F936F937F938F939F932C
:10050000AF93BF93EF93FF93E0916800F091690080
:10051000309709F00995FF91EF91BF91AF919F91AD
:100520008F917F916F915F914F913F912F910F909C
:100530000FBE0F901F9018951F920F920FB60F923B
:1005400011242F933F934F935F936F937F938F93D8
:100550009F93AF93BF93EF93FF93E0916800F09167
:100560006900309709F00995FF91EF91BF91AF9124
:100570009F918F917F916F915F914F913F912F91BB
:100580000F900FBE0F901F901895CF92DF92EF92B1
:10059000FF92CF93DF93EC018F819885A985BA856F
:1005A000880F991FAA1FBB1F880F991FAA1FBB1F67
:1005B0009C01AD01220F331F441F551F220F331F13
:1005C000441F551F0F2EC12CF4E2DF2EF4EFEF2E47
:1005D000F12CF02DC701B6010E94DD04215029B98C
:1005E0008F819885A985BA85880F991FAA1FBB1F7F
:1005F000880F991FAA1FBB1F9C01AD01220F331F3B
:10060000441F551F220F331F441F551FC701B6013A
:100610000E94DD04DA01C9010197A109B109892FFE
:100620009A2FAB2FBB2780BD9AB18881892B9E81E1
:10063000892B8AB920B58B819D81892B806899810E
:10064000892B9A81892B9C81892B822B80BD8FB726
:1006500080688FBFDF91CF91FF90EF90DF90CF90B8
:1006600008958CB108955D9BFECF8CB90895909349
:1006700073008093720008959093710080937000CE
:1006800008951F920F920FB60F9211242F933F934C
:100690004F935F936F937F938F939F93AF93BF938A
:1006A000EF93FF93E0917000F0917100309709F0A3
:1006B0000995FF91EF91BF91AF919F918F917F919C
:1006C0006F915F914F913F912F910F900FBE0F90BF
:1006D0001F9018951F920F920FB60F9211242F930F
:1006E0003F934F935F936F937F938F939F93AF93BA
:1006F000BF93EF93FF93E0917200F09173003097F6
:1007000009F00995FF91EF91BF91AF919F918F9162
:100710007F916F915F914F913F912F910F900FBEFD
:100720000F901F90189580917C00823049F4E8E783
:10073000F0E08485958501969587848783E084839E
:100740000895CF93DF931F92CDB7DEB780917A00E3
:10075000882319F0813029F008C00E943103898371
:1007600004C0CE0101960E946A01898184BD8091F6
:100770008400909185000097B1F48981809377007F
:1007800090917700913461F482BF81E0809376008C
:10079000E8E7F0E08485958501969587848759C0C0
:1007A0001092760056C08130910541F58981482F1D
:1007B00050E020918000309181002417350778F4B3
:1007C00010927500E8E7F0E081E0848315861486D6
:1007D000809175000684F785E02D09953AC082BFA7
:1007E000E8E7F0E0898190E09387828784859585AA
:1007F00001969587848784E084832BC09C012250D6
:100800003109409182005091830024173507A8F4E4
:100810008981E8E7F0E046815781DA01A20FB31F32
:100820008C93909174008981890F809374008485E2
:1008300095850196958784870CC02417350749F460
:10084000E8E7F0E02981258301969587848785E094
:1008500084830F90DF91CF91089580917C00853043
:10086000B1F48091740090917D00981310C08BEBCF
:1008700082BFE8E7F0E015861486109274001582B6
:1008800081E084830684F785E02D80E00995089552
:10089000CF93DF93CDB7DEB760970FB6F894DEBF86
:1008A0000FBECDBF009709F469C0DC0111968C9191
:1008B0001197E8E7F0E081839C91908312968C91E8
:1008C000828321E024831586148615821186108682
:1008D00013861286882319F0813059F151C040E8FF
:1008E00055E260E070E0488759876A877B8786E039
:1008F0008A831D821B821E821C82992319F09130EB
:1009000051F011C088E0898380E48F8383E993E00C
:100910000E94370308C080E1898380E88F8381EAE1
:1009200093E00E943C03CE0101960E94C5028CE335
:100930002AC083E08C871E861D86992319F091308A
:1009400079F020C083E993E0988B8F87CE010C96D5
:100950000E94F30083E993E00E9477018CE313C0C7
:1009600081EA93E0988B8F87CE010C960E942E012E
:1009700081EA93E00E9477018CE305C08DE303C018
:1009800080E401C08CE360960FB6F894DEBF0FBE22
:10099000CDBFDF91CF910895892B51F0E8E7F0E0CA
:1009A000718760875783468381E0848337872687F2
:1009B0008DE30895809182000895A1E21A2EAA1B6A
:1009C000BB1BFD010DC0AA1FBB1FEE1FFF1FA217FF
:1009D000B307E407F50720F0A21BB30BE40BF50BFC
:1009E000661F771F881F991F1A9469F76095709585
:1009F000809590959B01AC01BD01CF010895F894BD
:020A0000FFCF26
:020A02000100F1
:00000001FF
