:100000000C942A000C9447000C9447000C94470071
:100010000C94FA010C94D1010C9447000C944C02FE
:100020000C9475020C9423020C94A8010C947F018B
:100030000C9455010C941A030C9447000C94430340
:100040000C9447000C9447000C9447000C94470014
:100050000C94470011241FBECFE5D8E0DEBFCDBF12
:1000600010E0A0E6B0E0E6EFFAE002C005900D92E5
:10007000A836B107D9F720E0A8E6B0E001C01D928C
:10008000AE38B207E1F70E944C000C9479050C944D
:10009000000085E082BF0895CF93DF93CDB7DEB730
:1000A0002A970FB6F894DEBF0FBECDBF87E0E1E61A
:1000B000F0E0DE01119601900D928A95E1F781E062
:1000C000898718868A87CE0108960E94940464EC7A
:1000D00079E080E090E00E94340529E430E0AE0150
:1000E000485F5F4F67E070E0CE0101960E941805FF
:1000F0000E9401046CED75E080E090E00E94340500
:10010000F7CFFC01892BC9F18081813091F028F073
:100110008230D9F0833029F132C081812AB3982FFF
:100120009095292392819823822F892B8ABB80E086
:100130000895818127B3982F909529239281982340
:10014000822F892B87BB80E00895818124B3982F6B
:100150009095292392819823822F892B84BB80E05C
:100160000895818121B3982F909529239281982316
:10017000822F892B81BB80E0089581E0089581E082
:100180000895CF93DF9300D000D000D0CDB7DEB775
:10019000FC011EB81DB86C9A9DB18081892B8DB968
:1001A0009DB18281892B8DB99DB18181892B8DB9BA
:1001B0006F9A8381948190938D0080938C0081E06D
:1001C000898390E49A831B828C8380EB8D838FEFED
:1001D0008E83CE0104960E948100CE0101960E947A
:1001E000810078946E9A26960FB6F894DEBF0FBE03
:1001F000CDBFDF91CF910895CF93DF9300D000D092
:1002000000D0CDB7DEB7FC011EB81DB88DB18DB9D9
:100210009DB18281892B8DB99DB18081892B8DB94A
:100220009DB18181892B8DB96F9A8381948190933F
:100230008D0080938C0081E0898390EB9A831B82F0
:100240008C8380E48D838FEF8E83CE0104960E9491
:100250008100CE0101960E94810078946E9A2696C4
:100260000FB6F894DEBF0FBECDBFDF91CF910895DA
:1002700090916000913029F48FB91092600080E075
:10028000089581E00895FC0190916000913031F46F
:100290008FB180831092600080E0089581E008951E
:1002A00090938D0080938C0008951F920F920FB64B
:1002B0000F9211242F933F934F935F936F937F93EC
:1002C0008F939F93AF93BF93EF93FF9381E08093BE
:1002D0006000E0918C00F0918D000995FF91EF9105
:1002E000BF91AF919F918F917F916F915F914F914E
:1002F0003F912F910F900FBE0F901F9018951F9256
:100300000F920FB60F9211242F933F934F935F9349
:100310006F937F938F939F93AF93BF93EF93FF93CD
:10032000E0917200F0917300309709F00995FF9108
:10033000EF91BF91AF919F918F917F916F915F915D
:100340004F913F912F910F900FBE0F901F901895D6
:100350001F920F920FB60F9211242F933F934F933A
:100360005F936F937F938F939F93AF93BF93EF931D
:10037000FF93E0917000F0917100309709F00995BA
:10038000FF91EF91BF91AF919F918F917F916F916D
:100390005F914F913F912F910F900FBE0F901F9043
:1003A00018951F920F920FB60F9211242F933F931F
:1003B0004F935F936F937F938F939F93AF93BF936D
:1003C000EF93FF93E0916A00F0916B00309709F092
:1003D0000995FF91EF91BF91AF919F918F917F917F
:1003E0006F915F914F913F912F910F900FBE0F90A2
:1003F0001F9018951F920F920FB60F9211242F93F2
:100400003F934F935F936F937F938F939F93AF939C
:10041000BF93EF93FF93E0916800F09169003097EC
:1004200009F00995FF91EF91BF91AF919F918F9145
:100430007F916F915F914F913F912F910F900FBEE0
:100440000F901F9018951F920F920FB60F921124C4
:100450002F933F934F935F936F937F938F939F93CC
:10046000AF93BF93EF93FF93E0916E00F0916F0015
:10047000309709F00995FF91EF91BF91AF919F914E
:100480008F917F916F915F914F913F912F910F903D
:100490000FBE0F901F9018951F920F920FB60F92DC
:1004A00011242F933F934F935F936F937F938F9379
:1004B0009F93AF93BF93EF93FF93E0916C00F09104
:1004C0006D00309709F00995FF91EF91BF91AF91C1
:1004D0009F918F917F916F915F914F913F912F915C
:1004E0000F900FBE0F901F9018951F920F920FB68E
:1004F0000F9211242F933F934F935F936F937F93AA
:100500008F939F93AF93BF93EF93FF93E0916C0012
:10051000F0916D00309709F00995FF91EF91BF912F
:10052000AF919F918F917F916F915F914F913F918B
:100530002F910F900FBE0F901F901895CF92DF92C2
:10054000EF92FF92CF93DF93EC018F819885A9857D
:10055000BA85880F991FAA1FBB1F880F991FAA1F52
:10056000BB1F9C01AD01220F331F441F551F220FDB
:10057000331F441F551F0F2EC12CF4E2DF2EF4EF62
:10058000EF2EF12CF02DC701B6010E945705215026
:1005900029B98F819885A985BA85880F991FAA1FC7
:1005A000BB1F880F991FAA1FBB1F9C01AD01220F03
:1005B000331F441F551F220F331F441F551FC701F0
:1005C000B6010E945705DA01C9010197A109B109D5
:1005D000892F9A2FAB2FBB2780BD9AB18881892B99
:1005E0009E81892B8AB920B58B819D81892B80685A
:1005F0009981892B9A81892B9C81892B822B80BDA3
:100600008FB780688FBFDF91CF91FF90EF90DF9021
:10061000CF9008958CB108955D9BFECF8CB908955D
:10062000909377008093760008959093750080935F
:10063000740008951F920F920FB60F9211242F93FA
:100640003F934F935F936F937F938F939F93AF935A
:10065000BF93EF93FF93E0917400F0917500309792
:1006600009F00995FF91EF91BF91AF919F918F9103
:100670007F916F915F914F913F912F910F900FBE9E
:100680000F901F9018951F920F920FB60F92112482
:100690002F933F934F935F936F937F938F939F938A
:1006A000AF93BF93EF93FF93E0917600F0917700C3
:1006B000309709F00995FF91EF91BF91AF919F910C
:1006C0008F917F916F915F914F913F912F910F90FB
:1006D0000FBE0F901F90189580918000823049F4D2
:1006E000ECE7F0E08485958501969587848783E023
:1006F00084830895CF93DF931F92CDB7DEB78091A7
:100700007E00882319F0813029F008C00E940A0376
:10071000898304C0CE0101960E944301898184BD72
:1007200080918800909189000097A1F4898180933D
:100730007B0080917B00813451F481E080937A00CA
:1007400081E090E0909389008093880056C01092D9
:100750007A0053C08130910519F5898190E020918C
:100760008400309185002817390778F410927900B9
:10077000ECE7F0E081E084831586148680917900AF
:100780000684F785E02D099538C0ECE7F0E0938703
:10079000828782E090E09587848784E084832DC0FF
:1007A000AC014250510920918600309187002417F6
:1007B0003507A8F08981ECE7F0E026813781D9017F
:1007C000A40FB51F8C93909178008981890F809335
:1007D0007800848595850196958784870EC02F5F64
:1007E0003F4F4217530749F4ECE7F0E02981258396
:1007F00001969587848785E084830F90DF91CF9160
:100800000895CF93DF9380918000833009F089C0F1
:10081000809188009091890081309105A1F48091A8
:100820007E00882319F0813031F009C08091840066
:100830000E940C0304C0809184000E94380182E071
:10084000809380006EC02091840030918500A901C2
:100850004F5F5F4F4817590708F43FC0ACE7B0E05F
:100860001696ED91FC9117978E0F9F1FFC01329702
:10087000908115968C911597890F15968C931597E5
:1008800084BD12968C91882319F0813091F021C09B
:10089000ACE7B0E01696ED91FC9117971C968D9100
:1008A0009C911D97E80FF91F329780810E940C03DD
:1008B00010C0ACE7B0E01696ED91FC9117971C962E
:1008C0008D919C911D97E80FF91F329780810E94AE
:1008D000380182E08093800024C02E5F3F4F821752
:1008E0009307B9F4ECE7F0E0858182BF8281882329
:1008F00019F0813031F009C0809181000E940C0311
:1009000004C0809181000E94380182E080938000C1
:1009100008C0CCE7D0E0EE85FF858AE0099581E04C
:100920008C83DF91CF910895CF93DF93CDB7DEB75E
:1009300060970FB6F894DEBF0FBECDBF009709F4E5
:1009400069C0DC0111968C911197ECE7F0E081838E
:100950009C91908312968C91828321E0248315864A
:10096000148615821186108613861286882319F044
:10097000813059F151C040E855E260E070E04887AD
:1009800059876A877B8786E08A831D821B821E8245
:100990001C82992319F0913051F011C088E08983AD
:1009A00080E48F838CE693E00E94100308C080E10E
:1009B000898380E88F838AE793E00E941503CE0144
:1009C00001960E949E028CE32AC083E08C871E86DB
:1009D0001D86992319F0913079F020C08CE693E0C0
:1009E000988B8F87CE010C960E94C1008CE693E015
:1009F0000E9450018CE313C08AE793E0988B8F87A5
:100A0000CE010C960E94FC008AE793E00E94500100
:100A10008CE305C08DE303C080E401C08CE36096E5
:100A20000FB6F894DEBF0FBECDBFDF91CF91089512
:100A3000ECE7F0E041E0438397838683718760872A
:100A4000378726878281882319F0813029F007C0F3
:100A500081E40E940C0303C081E40E94380182E01B
:100A60008093800080E008950F931F938B019C0179
:100A7000672B682B692B81F417C00196823FA8E091
:100A80009A07D9F74F5F5F4F6F4F7F4F401751075E
:100A90006207730731F408C040E050E0BA01F0E0AB
:100AA000E0E08F2F9E2FE9CF1F910F910895A1E2D3
:100AB0001A2EAA1BBB1BFD010DC0AA1FBB1FEE1FD8
:100AC000FF1FA217B307E407F50720F0A21BB30B23
:100AD000E40BF50B661F771F881F991F1A9469F79F
:100AE00060957095809590959B01AC01BD01CF01FB
:060AF0000895F894FFCF09
:080AF6000103030303010508DD
:00000001FF
