:100000000C9449000C9466000C9466000C946600F5
:100010000C940B0C0C94E20B0C9466000C945D0C8D
:100020000C94860C0C94340C0C94B90B0C94900B1F
:100030000C94B5090C94AF0C0C9466000C94D80C7D
:100040000C9466000C9466000C9466000C94660098
:100050000C94660098050B066906C70625078307FA
:10006000E107190A400A1E0A240A290A2F0A350A3A
:100070003A0A8A0AC30A910A9A0AA10AAA0AB30A80
:10008000BA0A0C0B350B110B170B1D0B230B290B8D
:100090002F0B11241FBECFE5D8E0DEBFCDBF11E08E
:1000A000A0E6B0E0E4E9FEE102C005900D92AA3CB2
:1000B000B107D9F723E0AAECB1E001C01D92AE353B
:1000C000B207E1F70E9490080C94480F0C940000CE
:1000D0001F93CF93DF93CDB7DEB762970FB6F89437
:1000E000DEBF0FBECDBF8091CB0181116FC012E08A
:1000F00019838FEF8B8390E29A83E5EDF1E02981FC
:100100003A814B812083318342831C838E8390E428
:100110009D832C813D814E812383348345831F83BE
:10012000898780E888878F819885A98586839783CA
:10013000A087CE0101960E94D408CE0104960E94A9
:10014000D408CE0107960E94D4081A871C8684E042
:100150008B87ECECF1E08A859B85AC85808391836D
:10016000A2831D871F8688E08E878D859E85AF853B
:1001700083839483A583188B1A8A80E1898B88896D
:100180009989AA8986839783A087CE010A960E94BF
:10019000D408CE010D960E94D408CE0140960E944C
:1001A000D4084FEF6B858A850E941A094FEF6E8540
:1001B0008D850E941A094FEF698988890E941A0962
:1001C00081E08093CB0180E090E002C083E293E085
:1001D00062960FB6F894DEBF0FBECDBFDF91CF9110
:1001E0001F910895EF92FF920F931F93CF93DF9388
:1001F00000D000D0CDB7DEB719821A821B8221E071
:1002000029831C82009709F478C22091CB01213008
:1002100009F076C28C010F2EF5EDEF2EF1E0FF2EE6
:10022000F02D40E0F701618180810E941A0940E0D1
:10023000F701648183810E941A0940E0F701678118
:1002400086810E941A090F2EFCECEF2EF1E0FF2EA2
:10025000F02DAE014F5F5F4FF701618180810E94F9
:100260004D09AE014E5F5F4FF701648183810E94AB
:100270004D09AE014D5F5F4FF701678186810E9496
:100280004D0991E08981811190E081E02A8121115D
:1002900080E0892B39F481E02B81211180E08823D3
:1002A00009F4EAC1992309F48EC00F2EF5EDEF2E63
:1002B000F1E0FF2EF02D40E0F701618180810E9486
:1002C0001A094FEFF701648183810E941A094FEFE9
:1002D000F701678186810E941A09ECECF1E0AE011A
:1002E0004C5F5F4F618180810E944D098C8181113B
:1002F00011C08091CA0190E0FC01EE0FFF1FEE0FCC
:10030000FF1FEE0FFF1F8E0F9F1FFC01E05AFF4FD4
:1003100010826BC08091CA0190E0FC01EE0FFF1FBC
:10032000EE0FFF1FEE0FFF1F8E0F9F1FFC01E05A05
:10033000FF4F81E080830F2EF5EDEF2EF1E0FF2ED1
:10034000F02D4FEFF701618180810E941A0940E092
:10035000F701648183810E941A094FEFF7016781D9
:1003600086810E941A09ECECF1E0AE014C5F5F4F10
:10037000618180810E944D098C81811111C0809121
:10038000CA0190E0FC01EE0FFF1FEE0FFF1FEE0F02
:10039000FF1F8E0F9F1FFC01E05AFF4F118225C0E7
:1003A0008091CA0190E0FC01EE0FFF1FEE0FFF1FCE
:1003B000EE0FFF1F8E0F9F1FFC01E05AFF4F81E0E1
:1003C0008183128212C08091CA0190E0FC01EE0F7D
:1003D000FF1FEE0FFF1FEE0FFF1FE80FF91FE05A80
:1003E000FF4F81E08083818382838A8181118EC067
:1003F0000F2EF5EDEF2EF1E0FF2EF02D40E0F7018E
:10040000618180810E941A094FEFF7016481838125
:100410000E941A094FEFF701678186810E941A092D
:10042000ECECF1E0AE014C5F5F4F648183810E9490
:100430004D098C81811111C08091CA0190E0FC01AD
:10044000EE0FFF1FEE0FFF1FEE0FFF1F8E0F9F1F00
:10045000FC01E05AFF4F13826BC08091CA0190E00B
:10046000FC01EE0FFF1FEE0FFF1FEE0FFF1F8E0FA1
:100470009F1FFC01E05AFF4F81E083830F2EF5EDB3
:10048000EF2EF1E0FF2EF02D4FEFF701618180811B
:100490000E941A0940E0F701648183810E941A09D1
:1004A0004FEFF701678186810E941A09ECECF1E0B9
:1004B000AE014C5F5F4F648183810E944D098C8146
:1004C000811111C08091CA0190E0FC01EE0FFF1F65
:1004D000EE0FFF1FEE0FFF1F8E0F9F1FFC01E05A54
:1004E000FF4F148225C08091CA0190E0FC01EE0FFD
:1004F000FF1FEE0FFF1FEE0FFF1F8E0F9F1FFC0150
:10050000E05AFF4F81E08483158212C08091CA01B6
:1005100090E0FC01EE0FFF1FEE0FFF1FEE0FFF1F1D
:10052000E80FF91FE05AFF4F81E0838384838583BE
:100530008B8181118EC00F2EF5EDEF2EF1E0FF2E95
:10054000F02D40E0F701618180810E941A094FEF90
:10055000F701648183810E941A094FEFF7016781D7
:1005600086810E941A09ECECF1E0AE014C5F5F4F0E
:10057000678186810E944D098C81811111C0809113
:10058000CA0190E0FC01EE0FFF1FEE0FFF1FEE0F00
:10059000FF1F8E0F9F1FFC01E05AFF4F1682B3C052
:1005A0008091CA0190E0FC01EE0FFF1FEE0FFF1FCC
:1005B000EE0FFF1F8E0F9F1FFC01E05AFF4F81E0DF
:1005C00086830F2EF5EDEF2EF1E0FF2EF02D4FEF8D
:1005D000F701618180810E941A0940E0F70164817E
:1005E00083810E941A094FEFF701678186810E947B
:1005F0001A09ECECF1E0AE014C5F5F4F6781868138
:100600000E944D098C81811111C08091CA0190E036
:10061000FC01EE0FFF1FEE0FFF1FEE0FFF1F8E0FEF
:100620009F1FFC01E05AFF4F17826DC08091CA01E5
:1006300090E0FC01EE0FFF1FEE0FFF1FEE0FFF1FFC
:100640008E0F9F1FFC01E05AFF4F81E087831086C9
:100650005AC08091CA0190E0FC01EE0FFF1FEE0F1F
:10066000FF1FEE0FFF1FE80FF91FE05AFF4F81E059
:1006700086838783808747C08091CA0190E09C0170
:10068000220F331F220F331F220F331F820F931F9E
:10069000FC01E05AFF4F87599F4F21E02193E81753
:1006A000F907E1F730C02081920F3996E417F5077A
:1006B000D1F7983011F41C9205C0911102C03C93FF
:1006C00001C0FC9211966F5F7F4F6017710731F088
:1006D000AB01485B5F4FFB01982FE5CF8091CA01CA
:1006E0008F5F883029F08093CA0180E090E016C0C7
:1006F0001092CA0180E090E011C081E293E00EC048
:1007000082E293E00BC0D80160E670E009E610E0F9
:1007100080E06894FF24F1F831E0DACF0F900F9079
:100720000F900F90DF91CF911F910F91FF90EF905D
:100730000895CF93C82F80FF06C04FEF60E180E09F
:100740000E941A0905C040E060E180E00E941A0999
:10075000C1FF06C04FEF60E280E00E941A0905C0A9
:1007600040E060E280E00E941A09C2FF06C04FEF3D
:1007700060E480E00E941A0905C040E060E480E087
:100780000E941A09C3FF06C04FEF60E880E00E9494
:100790001A0905C040E060E880E00E941A0980E084
:1007A00090E0CF910895CF93C82F40E062E080E0C1
:1007B0000E941A098C2F0E9499034FEF68E080E095
:1007C0000E941A0980E58A95F1F740E068E080E030
:1007D0000E941A0980E58A95F1F780E090E0CF91B8
:1007E0000895CF93DF9300D000D000D0CDB7DEB70F
:1007F0008091DE0181115DC0198288E08A838FEFCC
:100800008B831C828E8386EF8D83CE0101960E949E
:10081000D408CE0104960E94D40840E062E080E053
:100820000E941A0940E068E080E00E941A0980E016
:100830000E9499032FEF82E597E02150804090407D
:10084000E1F700C0000083E00E94D3038FE19EE443
:100850000197F1F700C0000083E00E94D30387E511
:1008600092E00197F1F700C0000083E00E94D303FB
:1008700082E00E94D30382E00E94D30388E00E94BA
:10088000D30380E00E94D3038CE00E94D30380E076
:100890000E94D30386E00E94D30380E00E94D3032A
:1008A00081E00E94D30381E08093DE0180E090E04C
:1008B00002C083E293E026960FB6F894DEBF0FBE27
:1008C000CDBFDF91CF910895CF939091DE0191300C
:1008D00091F5C82F4FEF62E080E00E941A098C2F3B
:1008E00082958F700E9499034FEF68E080E00E942C
:1008F0001A0980E58A95F1F740E068E080E00E94FF
:100900001A0980E58A95F1F78C2F8F700E94990360
:100910004FEF68E080E00E941A0980E58A95F1F7C0
:1009200040E068E080E00E941A0980E58A95F1F7CE
:1009300080E090E002C08EEB92E0CF910895CF93DB
:100940009091DE01913001F5813071F4CFE7C60F4F
:100950008C2F82958F700E94D3038C2F8F700E94F2
:10096000D30380E090E015C0823089F4CFEBC60F4E
:100970008C2F82958F700E94D3038C2F8F700E94D2
:10098000D30380E090E005C08EEB92E002C080E0EF
:1009900090E0CF9108950F931F93CF93FC01809126
:1009A000DE01813099F43097A1F080818823A1F095
:1009B0008F01C0E00E946404CF5FF801EC0FF11DCD
:1009C00080818111F7CF80E090E008C08EEB92E04B
:1009D00005C08DEB92E002C080E090E0CF911F91C6
:1009E0000F910895CF93DF939091DE01913061F4E0
:1009F0004115510561F0EA010E949F04CE010E9459
:100A0000CB0480E090E005C08EEB92E002C08DEB5D
:100A100092E0DF91CF9108958091DE01813049F419
:100A200080E00E94D30381E00E94D30380E090E045
:100A300008958EEB92E00895E9E5F3E0618180810D
:100A40000E947A09089583EE91E00E94F2000895D1
:100A5000E3EEF1E090812181428131E0213009F023
:100A600030E081E0913009F080E0832B31F481E0C7
:100A7000413009F080E08823E9F0E8E4F3E04FEF4B
:100A8000618180810E941A09EEE4F3E04FEF6181F9
:100A900080810E941A09EBE4F3E04FEF61818081CD
:100AA0000E941A09E1E5F3E04FEF618180810E9425
:100AB0001A09089531E0211130E081E0911180E0C0
:100AC000832B29F481E0411180E08823E1F0E8E400
:100AD000F3E040E0618180810E941A09EEE4F3E0D6
:100AE00040E0618180810E941A09EBE4F3E040E07C
:100AF000618180810E941A09E1E5F3E040E06181B3
:100B000080810E941A090895CF93DF9300D0CDB75A
:100B1000DEB71A821982E091E2018E2F90E08730D1
:100B2000910508F0C4C2FC01E65DFF4F0C94420F32
:100B30008091E101811112C04EEA50E064E081E051
:100B40000E94F20449EB50E065E082E00E94F2046A
:100B50008091E1018F5F8093E101A9C2823320F48B
:100B60008F5F8093E101A3C2823391F442EC50E0A5
:100B700063E081E00E94F20440ED50E065E082E035
:100B80000E94F2048091E1018F5F8093E1018FC2A6
:100B900091E08091E401813009F090E081E02091C2
:100BA000E301213009F080E0892B41F481E090914C
:100BB000E501913009F080E08823A1F08091E00107
:100BC000811110C049ED50E061E081E00E94F20423
:100BD0004AEE50E061E082E00E94F20481E08093FE
:100BE000E00105C08091E001813009F060C2809190
:100BF000E30181115CC28091E401811158C28091AE
:100C0000E501811154C21092E0011092E10181E0EE
:100C10008093E2014CC28091E101823341F40E9451
:100C20000C058091E1018F5F8093E10140C2873321
:100C300020F48F5F8093E1013AC2873391F44AEF49
:100C400050E061E081E00E94F2044AE051E061E09E
:100C500082E00E94F2048091E1018F5F8093E101C4
:100C600026C2E3EEF1E02081318191E0313009F0DC
:100C700090E04091E50181E0213009F080E0892B8E
:100C800031F481E0413009F080E0882379F08091EF
:100C9000E00181110BC0992329F08091DF018F5F62
:100CA0008093DF0181E08093E00105C08091E00145
:100CB000813009F0FCC12111FAC13111F8C1411193
:100CC000F6C11092E0011092E10182E08093E2010E
:100CD000EEC18091E101811108C00E940C05809154
:100CE000E1018F5F8093E101E2C1853020F48F5FE5
:100CF0008093E101DCC1853091F442E151E061E093
:100D000081E00E94F20441E251E061E082E00E9451
:100D1000F2048091E1018F5F8093E101C8C12091CD
:100D2000E30191E0213009F090E0E3EEF1E0318160
:100D3000428181E0313009F080E0892B31F481E09B
:100D4000413009F080E0882379F08091E001811141
:100D50000BC0992329F08091DF018F5F8093DF0121
:100D600081E08093E00105C08091E001813009F0CD
:100D70009EC121119CC131119AC1411198C110929B
:100D8000E0011092E10183E08093E20190C1809143
:100D9000E101811108C00E940C058091E1018F5F83
:100DA0008093E10184C1853020F48F5F8093E1015D
:100DB0007EC1853091F44DE251E061E081E00E9416
:100DC000F2044BE351E061E082E00E94F204809182
:100DD000E1018F5F8093E1016AC1E3EEF1E02081E0
:100DE000318191E0313009F090E04091E50181E0FE
:100DF000213009F080E0892B31F481E0413009F0A5
:100E000080E0882379F08091E00181110BC0992363
:100E100029F08091DF018F5F8093DF0181E0809373
:100E2000E00105C08091E001813009F040C121114D
:100E30003EC131113CC141113AC11092E001109202
:100E4000E10184E08093E20132C18091E1018111EE
:100E500008C00E940C058091E1018F5F8093E10141
:100E600026C1853020F48F5F8093E10120C1853059
:100E700091F44BE451E062E081E00E94F2044AE523
:100E800051E061E082E00E94F2048091E1018F5F15
:100E90008093E1010CC1E3EEF1E02081318191E02A
:100EA000313009F090E04091E50181E0213009F016
:100EB00080E0892B31F481E0413009F080E0882323
:100EC00079F08091E00181110BC0992329F0809184
:100ED000DF018F5F8093DF0181E08093E00105C037
:100EE0008091E001813009F0E2C02111E0C03111B0
:100EF000DEC04111DCC01092E0011092E10185E0FA
:100F00008093E201D4C08091E101811108C00E9468
:100F10000C058091E1018F5F8093E101C8C08530AD
:100F200020F48F5F8093E101C2C0853091F44AE6DE
:100F300051E061E081E00E94F2044BE751E061E0A2
:100F400082E00E94F2048091E1018F5F8093E101D1
:100F5000AEC0E3EEF1E02081318191E0313009F063
:100F600090E04091E50181E0213009F080E0892B9B
:100F700031F481E0413009F080E0882379F08091FC
:100F8000E00181110BC0992329F08091DF018F5F6F
:100F90008093DF0181E08093E00105C08091E00152
:100FA000813009F084C0211182C0311180C041110B
:100FB0007EC01092E0011092E10186E08093E20190
:100FC00076C08091E101811108C00E940C058091DA
:100FD000E1018F5F8093E1016AC0853020F48F5F6B
:100FE0008093E10164C08530B9F48091DF01805DB8
:100FF00089834CE851E062E081E00E94F204AE0196
:101000004F5F5F4F69E082E00E94F2048091E1014E
:101010008F5F8093E1014BC0823320F48F5F809318
:10102000E10145C0823341F40E940C058091E10149
:101030008F5F8093E1013BC0873320F48F5F809303
:10104000E10135C0873319F58091DF01853069F4FE
:101050004BE951E061E081E00E94F2044CEA51E08A
:1010600065E082E00E94F2040CC045EB51E065E0CF
:1010700081E00E94F2044FEB51E065E082E00E94C3
:10108000F2048091E1018F5F8093E10110C084360A
:1010900020F48F5F8093E1010AC00E940C0510923A
:1010A000DF011092E0011092E1011092E2010F9035
:1010B0000F90DF91CF910895CF93DF93E8E4F3E0B1
:1010C000C1E0C083DFEFD28380E18183CF010E9442
:1010D000D408EEE4F3E0C083D28380E28183CF01C1
:1010E0000E94D408EBE4F3E0C083D28380E48183E0
:1010F000CF010E94D408E1E5F3E0C083D28380E809
:101100008183CF010E94D408E9E5F3E0D28383E034
:101110008083C183CF010E94D408DF91CF910895CD
:101120000E94F1030E945C080E946800E4E5F3E07D
:1011300081E080831182CF010E941D0D0F2EFCE102
:10114000AF2EF5E0BF2EF02D65016894EE24E1F896
:1011500005E010E020E030E041E068E770E083E285
:1011600095E00E94890D0F2EF5E0EF2EF02D0AE09C
:1011700010E020E030E041E066E970E088E295E0D0
:101180000E94890D0F2EF7E0EF2EF02D02E310E004
:1011900020E030E041E06EE670E084E895E00E94F7
:1011A000890D0E943E0EFDCFFC01892BE9F1808163
:1011B000813099F028F08230E9F0833041F137C076
:1011C00081812AB3982F9095292392819823822F89
:1011D000892B8ABB80E090E00895818127B3982F06
:1011E0009095292392819823822F892B87BB80E0B9
:1011F00090E00895818124B3982F909529239281BE
:101200009823822F892B84BB80E090E00895818110
:1012100021B3982F9095292392819823822F892B8F
:1012200081BB80E090E0089581E090E0089581E046
:1012300090E00895813081F028F08230B9F0833059
:10124000F9F028C08BB3962F909589234623482B1D
:101250004BBB80E090E0089588B3962F909589234A
:101260004623482B48BB80E090E0089585B3962F35
:10127000909589234623482B45BB80E090E0089554
:1012800082B3962F909589234623482B42BB80E05A
:1012900090E0089581E090E008954115510521F115
:1012A000813069F028F0823089F08330B1F01FC0BE
:1012B00089B36823FA01608380E090E0089586B3E3
:1012C0006823FA01608380E090E0089583B3682387
:1012D000FA01608380E090E0089580B36823FA010A
:1012E000608380E090E0089581E090E0089581E0DF
:1012F00090E00895813091F028F08230D9F0833069
:1013000029F130C08BB39BB3262F20959223809573
:101310006823692B6BBB80E090E0089588B398B395
:10132000262F2095922380956823692B68BB80E047
:1013300090E0089585B395B3262F2095922380954C
:101340006823692B65BB80E090E0089582B392B377
:10135000262F2095922380956823692B62BB80E01D
:1013600090E0089581E090E008951F920F920FB6EB
:101370000F9211242F933F934F935F936F937F931B
:101380008F939F93AF93BF93EF93FF9381E08093ED
:10139000A800E0915C03F0915D030995FF91EF9146
:1013A000BF91AF919F918F917F916F915F914F917D
:1013B0003F912F910F900FBE0F901F901895FC0139
:1013C000892B09F45CC18081813009F46FC020F061
:1013D000823009F4F8C056C188E083BF1CBE89B7CB
:1013E0008C7F89BF8281882319F0813021F00FC062
:1013F00089B789BF0CC089B7826089BF8FB7806801
:101400008FBF848195819093F5018093F401818150
:101410008130D9F118F08230F1F143C0E3818E2F91
:1014200090E08830910560F5FC01EF5CFF4F0C9473
:10143000420F1092FB0180E090E0089582E08093DB
:10144000FB0180E090E008951092FB0181E090E0C4
:10145000089583E08093FB0180E090E0089584E0AC
:101460008093FB0180E090E008951092FB0181E001
:1014700090E0089585E08093FB0180E090E008957E
:101480001092FB0181E090E0089587E08093FB01DA
:1014900080E090E0089586E08093FB0180E090E09A
:1014A00008951092FB0181E090E0089588E090E0BB
:1014B0009FBD8EBD1DBC1CBC1BBC1ABC89B7837CE8
:1014C00089BF8281882319F0813021F00FC089B74C
:1014D00089BF0CC089B7806189BF8FB780688FBF13
:1014E000848195819093F1018093F0018181813015
:1014F00009F450C020F0823009F455C05DC0E3818A
:101500008E2F90E088309105F0F5FC01E75CFF4FED
:101510000C94420F1092FA011092F90180E090E0D1
:10152000089582E090E09093FA018093F90180E0C1
:1015300090E008951092FA011092F90181E090E094
:10154000089583E090E09093FA018093F90180E0A0
:1015500090E0089584E090E09093FA018093F9017F
:1015600080E090E008951092FA011092F90181E074
:1015700090E0089585E090E09093FA018093F9015E
:1015800080E090E008951092FA011092F90181E054
:1015900090E0089587E090E09093FA018093F9013C
:1015A00080E090E0089586E090E09093FA018093C7
:1015B000F90180E090E008951092FA011092F9018B
:1015C00081E090E0089588E085BD14BC89B7837CF4
:1015D00089BF8281882319F0813021F00FC089B73B
:1015E00089BF0CC089B7806889BF8FB780688FBFFB
:1015F000848195819093ED018093EC01818181112B
:1016000039C0E3818E2F90E08830910570F5FC01A0
:10161000EF5BFF4F0C94420F1092F80180E090E0D6
:10162000089582E08093F80180E090E0089583E0DF
:101630008093F80180E090E0089584E08093F801C1
:1016400080E090E0089585E08093F80180E090E0EC
:10165000089586E08093F80180E090E0089587E0A7
:101660008093F80180E090E008951092F80181E005
:1016700090E008951092F80181E090E0089581E0F3
:1016800090E0089581E090E00895813091F018F0A5
:10169000823001F12DC06F3F710509F060F512BE77
:1016A0006CBF93B78091FB01892B83BF80E090E0F2
:1016B00008951DBC1CBC7BBD6ABD2EB53FB5809195
:1016C000F9019091FA01822B932B9FBD8EBD80E092
:1016D00090E008956F3F710509F080F414BC63BD7C
:1016E00095B58091F801892B85BD80E090E0089543
:1016F00081E090E0089581E090E0089581E090E03D
:1017000008959093F5018093F40108959093ED016D
:101710008093EC0108959093F1018093F001089576
:101720001F920F920FB60F9211242F933F934F9356
:101730005F936F937F938F939F93AF93BF93EF9339
:10174000FF93E091F601F091F701309709F00995C8
:10175000FF91EF91BF91AF919F918F917F916F9189
:101760005F914F913F912F910F900FBE0F901F905F
:1017700018951F920F920FB60F9211242F933F933B
:101780004F935F936F937F938F939F93AF93BF9389
:10179000EF93FF93E091F401F091F501309709F098
:1017A0000995FF91EF91BF91AF919F918F917F919B
:1017B0006F915F914F913F912F910F900FBE0F90BE
:1017C0001F9018951F920F920FB60F9211242F930E
:1017D0003F934F935F936F937F938F939F93AF93B9
:1017E000BF93EF93FF93E091EE01F091EF013097FB
:1017F00009F00995FF91EF91BF91AF919F918F9162
:101800007F916F915F914F913F912F910F900FBEFC
:101810000F901F9018951F920F920FB60F921124E0
:101820002F933F934F935F936F937F938F939F93E8
:10183000AF93BF93EF93FF93E091EC01F091ED0133
:10184000309709F00995FF91EF91BF91AF919F916A
:101850008F917F916F915F914F913F912F910F9059
:101860000FBE0F901F9018951F920F920FB60F92F8
:1018700011242F933F934F935F936F937F938F9395
:101880009F93AF93BF93EF93FF93E091F201F09199
:10189000F301309709F00995FF91EF91BF91AF9156
:1018A0009F918F917F916F915F914F913F912F9178
:1018B0000F900FBE0F901F9018951F920F920FB6AA
:1018C0000F9211242F933F934F935F936F937F93C6
:1018D0008F939F93AF93BF93EF93FF93E091F001AA
:1018E000F091F101309709F00995FF91EF91BF91C7
:1018F000AF919F918F917F916F915F914F913F91A8
:101900002F910F900FBE0F901F9018951F920F925E
:101910000FB60F9211242F933F934F935F936F93C2
:101920007F938F939F93AF93BF93EF93FF93E09138
:10193000F001F091F101309709F00995FF91EF91D5
:10194000BF91AF919F918F917F916F915F914F91D7
:101950003F912F910F900FBE0F901F9018951F92DF
:101960000F920FB60F9211242F933F934F935F93D3
:101970006F937F938F939F93AF93BF93EF93FF9357
:10198000E091FC01F091FD01309709F00995FF917C
:10199000EF91BF91AF919F918F917F916F915F91E7
:1019A0004F913F912F910F900FBE0F901F90189560
:1019B0001F920F920FB60F9211242F933F934F93C4
:1019C0005F936F937F938F939F93AF93BF93EF93A7
:1019D000FF93E091FE01F091FF01309709F0099526
:1019E000FF91EF91BF91AF919F918F917F916F91F7
:1019F0005F914F913F912F910F900FBE0F901F90CD
:101A00001895809100029091010201969093010235
:101A10008093000220910002309101028091020225
:101A2000909103022817390739F481E0809304026A
:101A300010920102109200020895009709F463C009
:101A4000FC01A9EAB0E0818111968C931197808105
:101A50008C9321E03DE014963C932E9313971296BD
:101A60001C9290E09093030280930202A2E4B3E000
:101A700011961C92119784E013968C93139781E032
:101A800012968C93129715963C932E9314978181FE
:101A9000813059F018F0823081F038C01092420342
:101AA00081E09DE00E94810B0FC081E080934203A2
:101AB00081E09DE00E948B0B07C082E0809342038F
:101AC00081E09DE00E94860B82E493E00E94DF09A2
:101AD0006AEF70E0809142030E94450BA1E3B2E0FF
:101AE000E5E2F2E082E493E01C921182108213821C
:101AF00012821582148253967396E817F907A1F79C
:101B000080E090E0089589EC90E008958CEC90E0FE
:101B10000895AF92BF92CF92DF92EF920F931F93EF
:101B2000CF93DF93DC019091AB00923008F088C036
:101B3000109709F488C0C114D10409F487C0A11416
:101B4000B10409F486C080910502909106020F97B6
:101B500041F0809136029091370286179707C9F5B8
:101B60007BC080913102882341F0E4E4F2E081E01F
:101B700090E05081511125C002C080E090E053E117
:101B8000589FF001599FF00D1124EB5DFD4FB1837B
:101B9000A083D382C282B582A482E6824783008773
:101BA00011872287338721E02487158616861786BA
:101BB000108A728B618B0F9709F451C080E090E01E
:101BC00053C0019673968F30910599F68FEC90E093
:101BD0004BC0E9E4F2E0C3E5D3E080819181861750
:101BE000970709F43FC07396EC17FD07B1F7809192
:101BF000050290910602FC013196F0930602E093F3
:101C0000050253E1589FF001599FF00D1124EB5D3F
:101C1000FD4FB183A083D382C282B582A482E682C3
:101C20004783008711872287338781E08487158661
:101C300016861786108A728B618B80E090E014C044
:101C40008AEC90E011C089EC90E00EC089EC90E045
:101C50000BC089EC90E008C08EEC90E005C08FECE2
:101C600090E002C08EEC90E0DF91CF911F910F9138
:101C7000EF90DF90CF90BF90AF9008958F929F929A
:101C8000BF92CF92DF92EF92FF920F931F93CF9369
:101C9000DF9380910402882309F4E8C00F2EF7E057
:101CA0008F2EF2E09F2EF02D25E232E0F4018FEF2F
:101CB0009FEF81939193E217F307D9F7E1E3F2E005
:101CC0002CE232E0B12C40E050E000910202109191
:101CD0000302BF0181819281A381B481800F911F92
:101CE000A11DB11D81839283A383B483E901C980BF
:101CF000DA80EB80FC808C159D05AE05BF0530F1C8
:101D000088818130A1F48081813001F5DB01119659
:101D10001D921D921D921C921497AB2DB0E0AA0F3C
:101D2000BB1FA95FBD4F4D935C93B3940FC081114E
:101D30000DC08081813051F41082AB2DB0E0AA0F2C
:101D4000BB1FA95FBD4F4D935C93B3944F5F5F4F33
:101D500073962D5E3F4F4F30510509F0B6CF8091FD
:101D6000070290910802019609F47EC007E012E094
:101D700061E070E00F2EF3E1EF2EF02DF62ECB0197
:101D8000E8012A813B812F3FEFEF3E07A1F1C88098
:101D9000D980EC9CD001ED9CB00D1124AB5DBD4F02
:101DA000E29EF001E39EF00D1124EB5DFD4F1696CF
:101DB000AC91E681EA1748F439832883880F991F8C
:101DC000FC01E95FFD4FD182C082F3948F2D90E03A
:101DD000FC01EE0FFF1FE95FFD4F208131812F3F96
:101DE000FFEF3F07A1F66F5F7F4F0E5F1F4F8A81A6
:101DF0009B81019619F680910702909108028F3F0E
:101E00004FEF940789F113E1189FF001199FF00D2E
:101E10001124EB5DFD4F0280F381E02D09957401E3
:101E2000D4018D919D914D01189FF001199FF00DE6
:101E30001124EB5DFD4F0190F081E02D0995E70144
:101E400088819981189FF001199FF00D1124EB5D95
:101E5000FD4F0480F581E02D0995F4018081918189
:101E60008F3FFFEF9F0781F610920402DF91CF9121
:101E70001F910F91FF90EF90DF90CF90BF909F90B8
:101E80008F900895EE0FFF1F0590F491E02D0994B7
:041E9000F894FFCFF4
:101E9400010000000000000000000000000000003D
:101EA400000000000000000000000000000000002E
:101EB400000000000000000000000000000000001E
:101EC400000000000000000000000000000000000E
:101ED400000000000000000001000002000057653F
:101EE4006C636F6D6520546F005468652047616DA5
:101EF4006500507265737320416E79204B657900DB
:101F0400546F20537461727400416E73776572204C
:101F1400427920486974696E6700594553202F201F
:101F24004E4F202F20534B4950004D617273205067
:101F34006C616E6574204861730033204D6F6F6E61
:101F44007300412059656172204F6E204D61727398
:101F54000049732036383720446179730036306B7A
:101F640067204F6E204561727468004973203230D7
:101F74006B67206F6E204D6F6F6E00312C20322CFA
:101F840020342C20372C203F3F004D697373696E39
:101F940067204E756D3A20313400536F756E64209E
:101FA40054726176656C7320496E004169722046F3
:101FB4006173746572203C2048324F00596F75720A
:101FC4002053636F72652049733A00436F6E6772E2
:101FD4006174756C6174696F6E732100596F75203B
:101FE400576F6E210047616D65204F766572005909
:0A1FF4006F75204C6F73652100002B
:00000001FF
