S00B0000544D552E7372656323
S11300000C942A000C9447000C9447000C9447006D
S11300100C94D1010C94A8010C9447000C94230275
S11300200C944C020C94FA010C947F010C9456012C
S11300300C942C010C94EB020C9447000C941403C4
S11300400C9447000C9447000C9447000C94470010
S11300500C94470011241FBECFE5D8E0DEBFCDBF0E
S113006010E0A0E6B0E0E4E2F9E002C005900D92F1
S1130070A036B107D9F720E0A0E6B0E001C01D9298
S1130080A738B207E1F70E944A000C9490040C943C
S113009000000895CF93DF93CDB7DEB7E5970FB691
S11300A0F894DEBF0FBECDBF81E08CAB8BAB1DAA35
S11300B0CE01C3960E94D90329E430E0AE014F5F1C
S11300C05F4F62E370E0CE01C3960E945D04FFCFF0
S11300D0FC01892BC9F18081813091F028F08230B4
S11300E0D9F0833029F132C081812AB3982F9095B9
S11300F0292392819823822F892B8ABB80E008953B
S1130100818127B3982F9095292392819823822F58
S1130110892B87BB80E00895818124B3982F909523
S1130120292392819823822F892B84BB80E0089510
S1130130818121B3982F9095292392819823822F2E
S1130140892B81BB80E0089581E0089581E00895C2
S1130150813079F028F08230A9F08330E1F024C0B6
S11301608BB3962F909589234623482B4BBB80E075
S1130170089588B3962F909589234623482B48BB2E
S113018080E0089585B3962F909589234623482BC4
S113019045BB80E0089582B3962F9095892346232A
S11301A0482B42BB80E0089581E00895CF93DF930C
S11301B000D000D000D0CDB7DEB7FC011EB81DB80A
S11301C06C9A9DB18081892B8DB99DB18281892BD7
S11301D08DB99DB18181892B8DB96F9A8381948169
S11301E0909386008093850081E0898390E49A83CC
S11301F01B828C8380EB8D838FEF8E83CE010496DC
S11302000E946800CE0101960E94680078946E9A5C
S113021026960FB6F894DEBF0FBECDBFDF91CF9107
S11302200895CF93DF93EC016C9B05C040E060E13F
S113023081E00E94A8009FB1988380916000882388
S1130240E1F39FB910926000DF91CF9108959093EC
S113025086008093850008951F920F920FB60F9227
S113026011242F933F934F935F936F937F938F93B7
S11302709F93AF93BF93EF93FF9381E080936000CC
S1130280E0918500F09186000995FF91EF91BF916F
S1130290AF919F918F917F916F915F914F913F911A
S11302A02F910F900FBE0F901F9018951F920F92D1
S11302B00FB60F9211242F933F934F935F936F9335
S11302C07F938F939F93AF93BF93EF93FF93E091AB
S11302D06B00F0916C00309709F00995FF91EF9154
S11302E0BF91AF919F918F917F916F915F914F914A
S11302F03F912F910F900FBE0F901F9018951F9252
S11303000F920FB60F9211242F933F934F935F9345
S11303106F937F938F939F93AF93BF93EF93FF93C9
S1130320E0916900F0916A00309709F00995FF9116
S1130330EF91BF91AF919F918F917F916F915F9159
S11303404F913F912F910F900FBE0F901F901895D2
S11303501F920F920FB60F9211242F933F934F9336
S11303605F936F937F938F939F93AF93BF93EF9319
S1130370FF93E0916300F0916400309709F00995D0
S1130380FF91EF91BF91AF919F918F917F916F9169
S11303905F914F913F912F910F900FBE0F901F903F
S11303A018951F920F920FB60F9211242F933F931B
S11303B04F935F936F937F938F939F93AF93BF9369
S11303C0EF93FF93E0916100F0916200309709F0A0
S11303D00995FF91EF91BF91AF919F918F917F917B
S11303E06F915F914F913F912F910F900FBE0F909E
S11303F01F9018951F920F920FB60F9211242F93EE
S11304003F934F935F936F937F938F939F93AF9398
S1130410BF93EF93FF93E0916700F09168003097EA
S113042009F00995FF91EF91BF91AF919F918F9141
S11304307F916F915F914F913F912F910F900FBEDC
S11304400F901F9018951F920F920FB60F921124C0
S11304502F933F934F935F936F937F938F939F93C8
S1130460AF93BF93EF93FF93E0916500F091660023
S1130470309709F00995FF91EF91BF91AF919F914A
S11304808F917F916F915F914F913F912F910F9039
S11304900FBE0F901F9018951F920F920FB60F92D8
S11304A011242F933F934F935F936F937F938F9375
S11304B09F93AF93BF93EF93FF93E0916500F09107
S11304C06600309709F00995FF91EF91BF91AF91C4
S11304D09F918F917F916F915F914F913F912F9158
S11304E00F900FBE0F901F901895CF92DF92EF924E
S11304F0FF92CF93DF93EC018F819885A985BA850C
S1130500880F991FAA1FBB1F880F991FAA1FBB1F03
S11305109C01AD01220F331F441F551F220F331FAF
S1130520441F551F0F2EC12CF4E2DF2EF4EFEF2EE3
S1130530F12CF02DC701B6010E946E04215029B997
S11305408F819885A985BA85880F991FAA1FBB1F1B
S1130550880F991FAA1FBB1F9C01AD01220F331FD7
S1130560441F551F220F331F441F551FC701B601D7
S11305700E946E04DA01C9010197A109B109892F0A
S11305809A2FAB2FBB2780BD9AB18881892B9E817E
S1130590892B8AB920B58B819D81892B80689981AB
S11305A0892B9A81892B9C81892B822B80BD8FB7C3
S11305B080688FBFDF91CF91FF90EF90DF90CF9055
S11305C008959093700080936F00089590936E0047
S11305D080936D0008951F920F920FB60F9211240D
S11305E02F933F934F935F936F937F938F939F9337
S11305F0AF93BF93EF93FF93E0916D00F0916E0082
S1130600309709F00995FF91EF91BF91AF919F91B8
S11306108F917F916F915F914F913F912F910F90A7
S11306200FBE0F901F9018951F920F920FB60F9246
S113063011242F933F934F935F936F937F938F93E3
S11306409F93AF93BF93EF93FF93E0916F00F0916B
S11306507000309709F00995FF91EF91BF91AF9128
S11306609F918F917F916F915F914F913F912F91C6
S11306700F900FBE0F901F90189585E084BD0895CC
S1130680CF93DF931F92CDB7DEB780917700882395
S113069019F0813021F007C08CB1898304C0CE01E8
S11306A001960E941101898182BF809181009091FD
S11306B082000097B1F48981809374009091740052
S11306C0913461F484BD81E080937300E5E7F0E048
S11306D08485958501969587848767C010927300F9
S11306E064C08130910541F58981482F50E0209103
S11306F07D0030917E002417350778F41092720043
S1130700E5E7F0E081E08483158614868091720029
S11307100684F785E02D099548C084BDE5E7F0E03F
S1130720898190E093878287848595850196958752
S1130730848784E0848339C0AC01425051092091FC
S11307407F00309180002417350708F1898184BD2A
S11307502981A5E7B0E01696ED91FC9117971C96B8
S11307608D919C911D97E80FF91F329720839091EA
S113077071008981890F809371001C968D919C91E1
S11307801D9701961D969C938E931C970EC02F5F08
S11307903F4F4217530749F4E5E7F0E029812583E9
S11307A001969587848785E084830F90DF91CF91AC
S11307B00895CF93DF93CDB7DEB760970FB6F89463
S11307C0DEBF0FBECDBF009709F469C0DC011196EE
S11307D08C911197E5E7F0E081839C9190831296C8
S11307E08C91828321E024831586148615821186D8
S11307F0108613861286882319F0813059F151C06E
S113080040E855E260E070E0488759876A877B8753
S113081086E08A831D821B821E821C82992319F022
S1130820913051F011C088E0898380E48F838DE397
S113083093E00E94E10208C080E1898380E88F830D
S113084080E493E00E94E602CE0101960E947502C4
S11308508CE32AC083E08C871E861D86992319F0B9
S1130860913079F020C08DE393E0988B8F87CE018F
S11308700C960E94D6008DE393E00E9427018CE33E
S113088013C080E493E0988B8F87CE010C960E946E
S1130890D60080E493E00E9427018CE305C08DE339
S11308A003C080E401C08CE360960FB6F894DEBF09
S11308B00FBECDBFDF91CF910895892B69F06333CB
S11308C0710550F4E5E7F0E071876087578346834C
S11308D081E08483378726878DE30895A1E21A2E69
S11308E0AA1BBB1BFD010DC0AA1FBB1FEE1FFF1FD0
S11308F0A217B307E407F50720F0A21BB30BE40B20
S1130900F50B661F771F881F991F1A9469F7609566
S11309107095809590959B01AC01BD01CF01089520
S1070920F894FFCF75
S9030000FC
