:100000000C9449000C9466000C9466000C946600F5
:100010000C94830B0C945A0B0C9466000C94D50B27
:100020000C94FE0B0C94AC0B0C94310B0C94080B41
:100030000C942D090C94270C0C9466000C94500C15
:100040000C9466000C9466000C9466000C94660098
:100050000C9466001B058E05EC054A06A8060607EB
:1000600064079109B80996099C09A109A709AD0976
:10007000B209020A3B0A090A120A190A220A2B0AC1
:10008000320A840AAD0A890A8F0A950A9B0AA10AD4
:10009000A70A11241FBECFE5D8E0DEBFCDBF11E017
:1000A000A0E6B0E0E4E8FDE102C005900D92AA3CB4
:1000B000B107D9F723E0AAECB1E001C01D92AC353D
:1000C000B207E1F70E9408080C94C00E0C940000DF
:1000D0001F93CF93DF93CDB7DEB762970FB6F89437
:1000E000DEBF0FBECDBF12E019838FEF8B8390E28E
:1000F0009A83E4EDF1E029813A814B8120833183B9
:1001000042831C838E8390E49D832C813D814E81AC
:100110002383348345831F83898780E888878F8181
:100120009885A98586839783A087CE0101960E9432
:100130004C08CE0104960E944C08CE0107960E94FE
:100140004C081A871C8684E08B87EBECF1E08A85EB
:100150009B85AC8580839183A2831D871F8688E061
:100160008E878D859E85AF8583839483A583188B29
:100170001A8A80E1898B88899989AA8986839783DD
:10018000A087CE010A960E944C08CE010D960E94CF
:100190004C08CE0140960E944C084FEF6B858A8533
:1001A0000E9492084FEF6E858D850E9492084FEF56
:1001B000698988890E94920880E090E062960FB673
:1001C000F894DEBF0FBECDBFDF91CF911F91089590
:1001D000EF92FF920F931F93CF93DF9300D000D045
:1001E000CDB7DEB7E82EF92E19821A821B8281E084
:1001F00089831C8204ED11E040E0F8016181808177
:100200000E94920840E0F801648183810E94920874
:1002100040E0F801678186810E9492080BEC11E0B2
:10022000AE014F5F5F4FF801618180810E94C50878
:10023000AE014E5F5F4FF801648183810E94C50863
:10024000AE014D5F5F4FF801678186810E94C5084E
:1002500091E08981811190E081E02A81211180E083
:10026000892B39F481E02B81211180E0882309F466
:10027000D2C1992309F486C004ED11E040E0F801F1
:10028000618180810E9492084FEFF801648183812F
:100290000E9492084FEFF801678186810E949208C0
:1002A000EBECF1E0AE014C5F5F4F618180810E9419
:1002B000C5088C81811111C08091CA0190E0FC01B8
:1002C000EE0FFF1FEE0FFF1FEE0FFF1F8E0F9F1F82
:1002D000FC01E05AFF4F108267C08091CA0190E094
:1002E000FC01EE0FFF1FEE0FFF1FEE0FFF1F8E0F23
:1002F0009F1FFC01E05AFF4F81E0808304ED11E075
:100300004FEFF801618180810E94920840E0F8017E
:10031000648183810E9492084FEFF8016781868192
:100320000E949208EBECF1E0AE014C5F5F4F6181FF
:1003300080810E94C5088C81811111C08091CA0101
:1003400090E0FC01EE0FFF1FEE0FFF1FEE0FFF1FEF
:100350008E0F9F1FFC01E05AFF4F118225C0809134
:10036000CA0190E0FC01EE0FFF1FEE0FFF1FEE0F22
:10037000FF1F8E0F9F1FFC01E05AFF4F81E081831A
:10038000128212C08091CA0190E0FC01EE0FFF1FA3
:10039000EE0FFF1FEE0FFF1FE80FF91FE05AFF4F90
:1003A00081E08083818382838A81811186C004ED0C
:1003B00011E040E0F801618180810E9492084FEFD6
:1003C000F801648183810E9492084FEFF8016781F0
:1003D00086810E949208EBECF1E0AE014C5F5F4F2A
:1003E000648183810E94C5088C81811111C0809134
:1003F000CA0190E0FC01EE0FFF1FEE0FFF1FEE0F92
:10040000FF1F8E0F9F1FFC01E05AFF4F138267C032
:100410008091CA0190E0FC01EE0FFF1FEE0FFF1F5D
:10042000EE0FFF1F8E0F9F1FFC01E05AFF4F81E070
:10043000838304ED11E04FEFF801618180810E9418
:10044000920840E0F801648183810E9492084FEF96
:10045000F801678186810E949208EBECF1E0AE0121
:100460004C5F5F4F648183810E94C5088C8181113C
:1004700011C08091CA0190E0FC01EE0FFF1FEE0F4A
:10048000FF1FEE0FFF1F8E0F9F1FFC01E05AFF4F53
:10049000148225C08091CA0190E0FC01EE0FFF1F7D
:1004A000EE0FFF1FEE0FFF1F8E0F9F1FFC01E05A84
:1004B000FF4F81E08483158212C08091CA0190E0D1
:1004C000FC01EE0FFF1FEE0FFF1FEE0FFF1FE80FE7
:1004D000F91FE05AFF4F81E08383848385838B81FA
:1004E000811186C004ED11E040E0F8016181808156
:1004F0000E9492084FEFF801648183810E94920864
:100500004FEFF801678186810E949208EBECF1E0E1
:10051000AE014C5F5F4F678186810E94C5088C8168
:10052000811111C08091CA0190E0FC01EE0FFF1F04
:10053000EE0FFF1FEE0FFF1F8E0F9F1FFC01E05AF3
:10054000FF4F1682A5C08091CA0190E0FC01EE0F1A
:10055000FF1FEE0FFF1FEE0FFF1F8E0F9F1FFC01EF
:10056000E05AFF4F81E0868304ED11E04FEFF80180
:10057000618180810E94920840E0F801648183815A
:100580000E9492084FEFF801678186810E949208CD
:10059000EBECF1E0AE014C5F5F4F678186810E941A
:1005A000C5088C81811111C08091CA0190E0FC01C5
:1005B000EE0FFF1FEE0FFF1FEE0FFF1F8E0F9F1F8F
:1005C000FC01E05AFF4F178263C08091CA0190E09E
:1005D000FC01EE0FFF1FEE0FFF1FEE0FFF1F8E0F30
:1005E0009F1FFC01E05AFF4F81E08783108650C0B7
:1005F0008091CA0190E0FC01EE0FFF1FEE0FFF1F7C
:10060000EE0FFF1FE80FF91FE05AFF4F81E08683CE
:10061000878380873DC02091CA0130E0C901880FDF
:10062000991F880F991F880F991F280F391FF901EB
:10063000E05AFF4F27593F4F81E08193E217F307BC
:10064000E1F726C09081890F3996E217F307D1F7B9
:10065000883011F41C9205C0811102C07C9301C046
:10066000FC9211964F5F5F4F4017510731F09A018E
:10067000285B3F4FFA01862FE5CF8091CA018F5F3B
:10068000883019F08093CA010FC01092CA010CC0C3
:10069000AE2DBF2D40E650E009E610E060E0689422
:1006A000FF24F1F871E0E3CF80E090E00F900F902D
:1006B0000F900F90DF91CF911F910F91FF90EF90CE
:1006C0000895CF93C82F80FF06C04FEF60E180E010
:1006D0000E94920805C040E060E180E00E9492081C
:1006E000C1FF06C04FEF60E280E00E94920805C0A3
:1006F00040E060E280E00E949208C2FF06C04FEF37
:1007000060E480E00E94920805C040E060E480E080
:100710000E949208C3FF06C04FEF60E880E00E948D
:10072000920805C040E060E880E00E94920880E006
:1007300090E0CF910895CF93C82F40E062E080E031
:100740000E9492088C2F0E9461034FEF68E081E0C5
:100750000E94920880E58A95F1F740E068E081E028
:100760000E94920880E58A95F1F780E090E0CF91B1
:100770000895CF93DF9300D000D000D0CDB7DEB77F
:1007800081E08C8388E08D838FEF8E8319828B8349
:1007900086EF8A83CE0104960E944C08CE01019612
:1007A0000E944C0840E062E080E00E94920840E035
:1007B00068E081E00E94920880E00E9461032FEFD0
:1007C00088E596E0215080409040E1F700C00000AD
:1007D00083E00E949B038FE19EE40197F1F700C044
:1007E000000083E00E949B0387E592E00197F1F708
:1007F00000C0000083E00E949B0382E00E949B03F4
:1008000082E00E949B0388E00E949B0380E00E949C
:100810009B038CE00E949B0380E00E949B0386E088
:100820000E949B0380E090E026960FB6F894DEBF0E
:100830000FBECDBFDF91CF910895CF93C82F4FEF5B
:1008400062E080E00E9492088C2F82958F700E9457
:1008500061034FEF68E081E00E94920880E58A958D
:10086000F1F740E068E081E00E94920880E58A9517
:10087000F1F78C2F8F700E9461034FEF68E081E0E9
:100880000E94920880E58A95F1F740E068E081E0F7
:100890000E94920880E58A95F1F780E090E0CF9180
:1008A0000895CF93813061F4CFE7C60F8C2F8295E6
:1008B0008F700E949B038C2F8F700E949B030DC032
:1008C000823059F4CFEBC60F8C2F82958F700E9427
:1008D0009B038C2F8F700E949B0380E090E0CF9150
:1008E00008950F931F93CF93FC018081882359F0C3
:1008F0008F01C0E00E941D04CF5FF801EC0FF11DD5
:1009000080818111F7CF80E090E0CF911F910F910E
:100910000895CF93DF93EA010E945104CE010E9413
:10092000710480E090E0DF91CF91089580E00E9413
:100930009B0381E00E949B0380E090E00895E7E53F
:10094000F3E0618180810E94F208089581EE91E0D8
:100950000E94E8000895E1EEF1E09081218142815A
:1009600031E0213009F030E081E0913009F080E0A1
:10097000832B31F481E0413009F080E08823E9F0F5
:10098000E6E4F3E04FEF618180810E949208ECE49D
:10099000F3E04FEF618180810E949208E9E4F3E087
:1009A0004FEF618180810E949208EFE4F3E04FEF06
:1009B000618180810E949208089531E0211130E028
:1009C00081E0911180E0832B29F481E0411180E0E6
:1009D0008823E1F0E6E4F3E040E0618180810E9459
:1009E0009208ECE4F3E040E0618180810E9492088B
:1009F000E9E4F3E040E0618180810E949208EFE445
:100A0000F3E040E0618180810E9492080895CF93D5
:100A1000DF9300D0CDB7DEB71A821982E091E001F2
:100A20008E2F90E08730910508F0B9C2FC01E65D99
:100A3000FF4F0C94BA0E8091DF01811112C04EEA73
:100A400050E064E081E00E94890449EB50E065E0F9
:100A500082E00E9489048091DF018F5F8093DF0133
:100A60009EC2823320F48F5F8093DF0198C282336D
:100A700091F442EC50E063E081E00E94890440ED93
:100A800050E065E082E00E9489048091DF018F5F81
:100A90008093DF0184C291E08091E201813009F00E
:100AA00090E081E02091E101213009F080E0892B84
:100AB00041F481E09091E301913009F080E08823D6
:100AC000A1F08091DE01811110C049ED50E061E09C
:100AD00081E00E9489044AEE50E061E082E00E94D9
:100AE000890481E08093DE0105C08091DE018130C0
:100AF00009F055C28091E101811151C28091E2015A
:100B000081114DC28091E301811149C21092DE0131
:100B10001092DF0181E08093E00141C28091DF010A
:100B2000823341F40E9496048091DF018F5F8093AD
:100B3000DF0135C2873320F48F5F8093DF012FC23E
:100B4000873391F44AEF50E061E081E00E9489042C
:100B50004AE051E061E082E00E9489048091DF0177
:100B60008F5F8093DF011BC2E1EEF1E020813181D4
:100B700091E0313009F090E04091E30181E02130D3
:100B800009F080E0892B31F481E0413009F080E008
:100B9000882379F08091DE0181110BC0992329F01F
:100BA0008091DD018F5F8093DD0181E08093DE0124
:100BB00005C08091DE01813009F0F1C12111EFC142
:100BC0003111EDC14111EBC11092DE011092DF0134
:100BD00082E08093E001E3C18091DF01811108C0D0
:100BE0000E9496048091DF018F5F8093DF01D7C15F
:100BF000853020F48F5F8093DF01D1C1853091F47F
:100C000042E151E061E081E00E94890441E251E06B
:100C100061E082E00E9489048091DF018F5F809310
:100C2000DF01BDC12091E10191E0213009F090E0A8
:100C3000E1EEF1E03181428181E0313009F080E084
:100C4000892B31F481E0413009F080E0882379F08C
:100C50008091DE0181110BC0992329F08091DD0183
:100C60008F5F8093DD0181E08093DE0105C080917C
:100C7000DE01813009F093C1211191C131118FC181
:100C800041118DC11092DE011092DF0183E080934B
:100C9000E00185C18091DF01811108C00E949604A6
:100CA0008091DF018F5F8093DF0179C1853020F46F
:100CB0008F5F8093DF0173C1853091F44DE251E085
:100CC00061E081E00E9489044BE351E061E082E051
:100CD0000E9489048091DF018F5F8093DF015FC1F3
:100CE000E1EEF1E02081318191E0313009F090E0D6
:100CF0004091E30181E0213009F080E0892B31F45B
:100D000081E0413009F080E0882379F08091DE01B4
:100D100081110BC0992329F08091DD018F5F8093B1
:100D2000DD0181E08093DE0105C08091DE0181302C
:100D300009F035C1211133C1311131C141112FC128
:100D40001092DE011092DF0184E08093E00127C160
:100D50008091DF01811108C00E9496048091DF011B
:100D60008F5F8093DF011BC1853020F48F5F8093FC
:100D7000DF0115C1853091F44BE451E062E081E080
:100D80000E9489044AE551E061E082E00E94890402
:100D90008091DF018F5F8093DF0101C1E1EEF1E01F
:100DA0002081318191E0313009F090E04091E30100
:100DB00081E0213009F080E0892B31F481E041307D
:100DC00009F080E0882379F08091DE0181110BC069
:100DD000992329F08091DD018F5F8093DD0181E00F
:100DE0008093DE0105C08091DE01813009F0D7C01B
:100DF0002111D5C03111D3C04111D1C01092DE01F3
:100E00001092DF0185E08093E001C9C08091DF018D
:100E1000811108C00E9496048091DF018F5F80934A
:100E2000DF01BDC0853020F48F5F8093DF01B7C044
:100E3000853091F44AE651E061E081E00E94890446
:100E40004BE751E061E082E00E9489048091DF017C
:100E50008F5F8093DF01A3C0E1EEF1E0208131815B
:100E600091E0313009F090E04091E30181E02130E0
:100E700009F080E0892B31F481E0413009F080E015
:100E8000882379F08091DE0181110BC0992329F02C
:100E90008091DD018F5F8093DD0181E08093DE0131
:100EA00005C08091DE01813009F079C0211177C041
:100EB000311175C0411173C01092DE011092DF0133
:100EC00086E08093E0016BC08091DF01811108C052
:100ED0000E9496048091DF018F5F8093DF015FC0E5
:100EE000853020F48F5F8093DF0159C08530B9F4DD
:100EF0008091DD01805D89834CE851E062E081E012
:100F00000E948904AE014F5F5F4F69E082E00E945A
:100F100089048091DF018F5F8093DF0140C08233BD
:100F200020F48F5F8093DF013AC0823341F40E9446
:100F300096048091DF018F5F8093DF0130C087339B
:100F400020F48F5F8093DF012AC0873319F58091E9
:100F5000DD01853069F44BE951E061E081E00E94F8
:100F600089044CEA51E065E082E00E9489040CC0EB
:100F700045EB51E065E081E00E9489044FEB51E0D0
:100F800065E082E00E9489048091DF018F5F809399
:100F9000DF0105C08C3318F48F5F8093DF010F9061
:100FA0000F90DF91CF910895CF93DF93E6E4F3E0C4
:100FB000C1E0C083DFEFD28380E18183CF010E9453
:100FC0004C08ECE4F3E0C083D28380E28183CF015C
:100FD0000E944C08E9E4F3E0C083D28380E481837B
:100FE000CF010E944C08EFE4F3E0C083D28380E895
:100FF0008183CF010E944C08E7E5F3E0D28383E0D0
:101000008083C183CF010E944C08DF91CF91089566
:101010000E94B9030E94D4070E946800E2E5F3E051
:1010200081E080831182CF010E94950C0F2EFFE991
:10103000AF2EF4E0BF2EF02D65016894EE24E1F8A8
:1010400005E010E020E030E041E068E770E086EA8B
:1010500094E00E94010D0F2EF5E0EF2EF02D0AE036
:1010600010E020E030E041E066E970E08BEA94E0D7
:101070000E94010D0F2EF7E0EF2EF02D09E110E098
:1010800020E030E041E06EE670E087E095E00E940D
:10109000010D0E94B60DFDCFFC01892BE9F1808185
:1010A000813099F028F08230E9F0833041F137C087
:1010B00081812AB3982F9095292392819823822F9A
:1010C000892B8ABB80E090E00895818127B3982F17
:1010D0009095292392819823822F892B87BB80E0CA
:1010E00090E00895818124B3982F909529239281CF
:1010F0009823822F892B84BB80E090E00895818122
:1011000021B3982F9095292392819823822F892BA0
:1011100081BB80E090E0089581E090E0089581E057
:1011200090E00895813081F028F08230B9F083306A
:10113000F9F028C08BB3962F909589234623482B2E
:101140004BBB80E090E0089588B3962F909589235B
:101150004623482B48BB80E090E0089585B3962F46
:10116000909589234623482B45BB80E090E0089565
:1011700082B3962F909589234623482B42BB80E06B
:1011800090E0089581E090E008954115510521F126
:10119000813069F028F0823089F08330B1F01FC0CF
:1011A00089B36823FA01608380E090E0089586B3F4
:1011B0006823FA01608380E090E0089583B3682398
:1011C000FA01608380E090E0089580B36823FA011B
:1011D000608380E090E0089581E090E0089581E0F0
:1011E00090E00895813091F028F08230D9F083307A
:1011F00029F130C08BB39BB3262F20959223809585
:101200006823692B6BBB80E090E0089588B398B3A6
:10121000262F2095922380956823692B68BB80E058
:1012200090E0089585B395B3262F2095922380955D
:101230006823692B65BB80E090E0089582B392B388
:10124000262F2095922380956823692B62BB80E02E
:1012500090E0089581E090E008951F920F920FB6FC
:101260000F9211242F933F934F935F936F937F932C
:101270008F939F93AF93BF93EF93FF9381E08093FE
:10128000A800E0915A03F0915B030995FF91EF915B
:10129000BF91AF919F918F917F916F915F914F918E
:1012A0003F912F910F900FBE0F901F901895FC014A
:1012B000892B09F45CC18081813009F46FC020F072
:1012C000823009F4F8C056C188E083BF1CBE89B7DC
:1012D0008C7F89BF8281882319F0813021F00FC073
:1012E00089B789BF0CC089B7826089BF8FB7806812
:1012F0008FBF848195819093F3018093F201818166
:101300008130D9F118F08230F1F143C0E3818E2FA2
:1013100090E08830910560F5FC01EF5CFF4F0C9484
:10132000BA0E1092F90180E090E0089582E0809377
:10133000F90180E090E008951092F90181E090E0D9
:10134000089583E08093F90180E090E0089584E0BF
:101350008093F90180E090E008951092F90181E016
:1013600090E0089585E08093F90180E090E0089591
:101370001092F90181E090E0089587E08093F901EF
:1013800080E090E0089586E08093F90180E090E0AD
:1013900008951092F90181E090E0089588E090E0CE
:1013A0009FBD8EBD1DBC1CBC1BBC1ABC89B7837CF9
:1013B00089BF8281882319F0813021F00FC089B75D
:1013C00089BF0CC089B7806189BF8FB780688FBF24
:1013D000848195819093EF018093EE01818181302A
:1013E00009F450C020F0823009F455C05DC0E3819B
:1013F0008E2F90E088309105F0F5FC01E75CFF4FFF
:101400000C94BA0E1092F8011092F70180E090E06F
:10141000089582E090E09093F8018093F70180E0D6
:1014200090E008951092F8011092F70181E090E0A9
:10143000089583E090E09093F8018093F70180E0B5
:1014400090E0089584E090E09093F8018093F70194
:1014500080E090E008951092F8011092F70181E089
:1014600090E0089585E090E09093F8018093F70173
:1014700080E090E008951092F8011092F70181E069
:1014800090E0089587E090E09093F8018093F70151
:1014900080E090E0089586E090E09093F8018093DA
:1014A000F70180E090E008951092F8011092F701A2
:1014B00081E090E0089588E085BD14BC89B7837C05
:1014C00089BF8281882319F0813021F00FC089B74C
:1014D00089BF0CC089B7806889BF8FB780688FBF0C
:1014E000848195819093EB018093EA018181811140
:1014F00039C0E3818E2F90E08830910570F5FC01B2
:10150000EF5BFF4F0C94BA0E1092F60180E090E072
:10151000089582E08093F60180E090E0089583E0F2
:101520008093F60180E090E0089584E08093F601D6
:1015300080E090E0089585E08093F60180E090E0FF
:10154000089586E08093F60180E090E0089587E0BA
:101550008093F60180E090E008951092F60181E01A
:1015600090E008951092F60181E090E0089581E006
:1015700090E0089581E090E00895813091F018F0B6
:10158000823001F12DC06F3F710509F060F512BE88
:101590006CBF93B78091F901892B83BF80E090E005
:1015A00008951DBC1CBC7BBD6ABD2EB53FB58091A6
:1015B000F7019091F801822B932B9FBD8EBD80E0A7
:1015C00090E008956F3F710509F080F414BC63BD8D
:1015D00095B58091F601892B85BD80E090E0089556
:1015E00081E090E0089581E090E0089581E090E04E
:1015F00008959093F3018093F20108959093EB0185
:101600008093EA0108959093EF018093EE0108958D
:101610001F920F920FB60F9211242F933F934F9367
:101620005F936F937F938F939F93AF93BF93EF934A
:10163000FF93E091F401F091F501309709F00995DD
:10164000FF91EF91BF91AF919F918F917F916F919A
:101650005F914F913F912F910F900FBE0F901F9070
:1016600018951F920F920FB60F9211242F933F934C
:101670004F935F936F937F938F939F93AF93BF939A
:10168000EF93FF93E091F201F091F301309709F0AD
:101690000995FF91EF91BF91AF919F918F917F91AC
:1016A0006F915F914F913F912F910F900FBE0F90CF
:1016B0001F9018951F920F920FB60F9211242F931F
:1016C0003F934F935F936F937F938F939F93AF93CA
:1016D000BF93EF93FF93E091EC01F091ED01309710
:1016E00009F00995FF91EF91BF91AF919F918F9173
:1016F0007F916F915F914F913F912F910F900FBE0E
:101700000F901F9018951F920F920FB60F921124F1
:101710002F933F934F935F936F937F938F939F93F9
:10172000AF93BF93EF93FF93E091EA01F091EB0148
:10173000309709F00995FF91EF91BF91AF919F917B
:101740008F917F916F915F914F913F912F910F906A
:101750000FBE0F901F9018951F920F920FB60F9209
:1017600011242F933F934F935F936F937F938F93A6
:101770009F93AF93BF93EF93FF93E091F001F091AC
:10178000F101309709F00995FF91EF91BF91AF9169
:101790009F918F917F916F915F914F913F912F9189
:1017A0000F900FBE0F901F9018951F920F920FB6BB
:1017B0000F9211242F933F934F935F936F937F93D7
:1017C0008F939F93AF93BF93EF93FF93E091EE01BD
:1017D000F091EF01309709F00995FF91EF91BF91DA
:1017E000AF919F918F917F916F915F914F913F91B9
:1017F0002F910F900FBE0F901F9018951F920F9270
:101800000FB60F9211242F933F934F935F936F93D3
:101810007F938F939F93AF93BF93EF93FF93E09149
:10182000EE01F091EF01309709F00995FF91EF91EA
:10183000BF91AF919F918F917F916F915F914F91E8
:101840003F912F910F900FBE0F901F9018951F92F0
:101850000F920FB60F9211242F933F934F935F93E4
:101860006F937F938F939F93AF93BF93EF93FF9368
:10187000E091FA01F091FB01309709F00995FF9191
:10188000EF91BF91AF919F918F917F916F915F91F8
:101890004F913F912F910F900FBE0F901F90189571
:1018A0001F920F920FB60F9211242F933F934F93D5
:1018B0005F936F937F938F939F93AF93BF93EF93B8
:1018C000FF93E091FC01F091FD01309709F009953B
:1018D000FF91EF91BF91AF919F918F917F916F9108
:1018E0005F914F913F912F910F900FBE0F901F90DE
:1018F00018958091FE019091FF0101969093FF0150
:101900008093FE012091FE013091FF018091000241
:10191000909101022817390739F481E0809302027F
:101920001092FF011092FE010895009709F463C020
:10193000FC01A9EAB0E0818111968C931197808116
:101940008C9329E73CE014963C932E9313971296C0
:101950001C9290E09093010280930002A0E4B3E017
:1019600011961C92119784E013968C93139781E043
:1019700012968C93129715963C932E93149781810F
:10198000813059F018F0823081F038C01092400355
:1019900089E79CE00E94F90A0FC081E08093400330
:1019A00089E79CE00E94030B07C082E0809340031C
:1019B00089E79CE00E94FE0A80E493E00E945709B8
:1019C0006AEF70E0809140030E94BD0AAFE2B2E08E
:1019D000E3E2F2E080E493E01C9211821082138231
:1019E00012821582148253967396E817F907A1F7AD
:1019F00080E090E0089589EC90E008958CEC90E010
:101A00000895AF92BF92CF92DF92EF920F931F9300
:101A1000CF93DF93DC019091AB00923008F088C047
:101A2000109709F488C0C114D10409F487C0A11427
:101A3000B10409F486C080910302909104020F97CB
:101A400041F0809134029091350286179707C9F5CD
:101A50007BC080912F02882341F0E2E4F2E081E034
:101A600090E05081511125C002C080E090E053E128
:101A7000589FF001599FF00D1124ED5DFD4FB1838A
:101A8000A083D382C282B582A482E6824783008784
:101A900011872287338721E02487158616861786CB
:101AA000108A728B618B0F9709F451C080E090E02F
:101AB00053C0019673968F30910599F68FEC90E0A4
:101AC0004BC0E7E4F2E0C1E5D3E080819181861765
:101AD000970709F43FC07396EC17FD07B1F78091A3
:101AE000030290910402FC013196F0930402E0930A
:101AF000030253E1589FF001599FF00D1124ED5D51
:101B0000FD4FB183A083D382C282B582A482E682D4
:101B10004783008711872287338781E08487158672
:101B200016861786108A728B618B80E090E014C055
:101B30008AEC90E011C089EC90E00EC089EC90E056
:101B40000BC089EC90E008C08EEC90E005C08FECF3
:101B500090E002C08EEC90E0DF91CF911F910F9149
:101B6000EF90DF90CF90BF90AF9008958F929F92AB
:101B7000BF92CF92DF92EF92FF920F931F93CF937A
:101B8000DF9380910202882309F4E8C00F2EF5E06C
:101B90008F2EF2E09F2EF02D23E232E0F4018FEF42
:101BA0009FEF81939193E217F307D9F7EFE2F2E009
:101BB0002AE232E0B12C40E050E0009100021091A6
:101BC0000102BF0181819281A381B481800F911FA5
:101BD000A11DB11D81839283A383B483E901C980D0
:101BE000DA80EB80FC808C159D05AE05BF0530F1D9
:101BF00088818130A1F48081813001F5DB0111966B
:101C00001D921D921D921C921497AB2DB0E0AA0F4D
:101C1000BB1FAB5FBD4F4D935C93B3940FC081115D
:101C20000DC08081813051F41082AB2DB0E0AA0F3D
:101C3000BB1FAB5FBD4F4D935C93B3944F5F5F4F42
:101C400073962D5E3F4F4F30510509F0B6CF80910E
:101C5000050290910602019609F47EC005E012E0AB
:101C600061E070E00F2EF3E1EF2EF02DF62ECB01A8
:101C7000E8012A813B812F3FEFEF3E07A1F1C880A9
:101C8000D980EC9CD001ED9CB00D1124AD5DBD4F11
:101C9000E29EF001E39EF00D1124ED5DFD4F1696DE
:101CA000AC91E681EA1748F439832883880F991F9D
:101CB000FC01EB5FFD4FD182C082F3948F2D90E049
:101CC000FC01EE0FFF1FEB5FFD4F208131812F3FA5
:101CD000FFEF3F07A1F66F5F7F4F0E5F1F4F8A81B7
:101CE0009B81019619F680910502909106028F3F23
:101CF0004FEF940789F113E1189FF001199FF00D40
:101D00001124ED5DFD4F0280F381E02D09957401F2
:101D1000D4018D919D914D01189FF001199FF00DF7
:101D20001124ED5DFD4F0190F081E02D0995E70153
:101D300088819981189FF001199FF00D1124ED5DA4
:101D4000FD4F0480F581E02D0995F401808191819A
:101D50008F3FFFEF9F0781F610920202DF91CF9134
:101D60001F910F91FF90EF90DF90CF90BF909F90C9
:101D70008F900895EE0FFF1F0590F491E02D0994C8
:041D8000F894FFCF05
:101D8400010000000000000000000000000000004E
:101D9400000000000000000000000000000000003F
:101DA400000000000000000000000000000000002F
:101DB400000000000000000000000000000000001F
:101DC4000000000000000000010000020000576550
:101DD4006C636F6D6520546F005468652047616DB6
:101DE4006500507265737320416E79204B657900EC
:101DF400546F20537461727400416E73776572205E
:101E0400427920486974696E6700594553202F2030
:101E14004E4F202F20534B4950004D617273205078
:101E24006C616E6574204861730033204D6F6F6E72
:101E34007300412059656172204F6E204D617273A9
:101E44000049732036383720446179730036306B8B
:101E540067204F6E204561727468004973203230E8
:101E64006B67206F6E204D6F6F6E00312C20322C0B
:101E740020342C20372C203F3F004D697373696E4A
:101E840067204E756D3A20313400536F756E6420AF
:101E940054726176656C7320496E00416972204604
:101EA4006173746572203C2048324F00596F75721B
:101EB4002053636F72652049733A00436F6E6772F3
:101EC4006174756C6174696F6E732100596F75204C
:101ED400576F6E210047616D65204F76657200591A
:0A1EE4006F75204C6F73652100003C
:00000001FF
