:100000000C942A000C9447000C9447000C94470071
:100010000C94FB010C94D2010C9447000C944D02FB
:100020000C9476020C9424020C94A9010C94800187
:100030000C9456010C941C030C9447000C9445033B
:100040000C9447000C9447000C9447000C94470014
:100050000C94470011241FBECFE5D8E0DEBFCDBF12
:1000600010E0A0E6B0E0E8E1FBE002C005900D92F0
:10007000A236B107D9F720E0A2E6B0E001C01D9298
:10008000AD3BB207E1F70E9464000C948A050C9422
:10009000000008958FEF8CBD86E890E00E94250552
:1000A000E6E8F0E081E0818310821282CF010E94B5
:1000B000930429E430E046E850E067E070E089E826
:1000C00090E00E9429050895E6E8F0E081E0818350
:1000D00080838283CF010E9493042AE430E049E8C0
:1000E00050E067E070E086E890E00E9417050E940B
:1000F00020040E94080464E670E080E090E00E9422
:100100004505F5CFFC01892BC9F18081813091F043
:1001100028F08230D9F0833029F132C081812AB3AE
:10012000982F9095292392819823822F892B8ABB1F
:1001300080E00895818127B3982F9095292392819B
:100140009823822F892B87BB80E00895818124B377
:10015000982F9095292392819823822F892B84BBF5
:1001600080E00895818121B3982F90952923928171
:100170009823822F892B81BB80E0089581E0089528
:1001800081E00895CF93DF9300D000D000D0CDB7A9
:10019000DEB7FC011EB81DB86C9A9DB18081892B19
:1001A0008DB99DB18281892B8DB99DB18181892BBA
:1001B0008DB96F9A838194819093BC008093BB002A
:1001C00081E0898390E49A831B828C8380EB8D830A
:1001D0008FEF8E83CE0104960E948200CE0101969D
:1001E0000E94820078946E9A26960FB6F894DEBF2D
:1001F0000FBECDBFDF91CF910895CF93DF9300D095
:1002000000D000D0CDB7DEB7FC011EB81DB88DB14F
:100210008DB99DB18281892B8DB99DB18081892B4A
:100220008DB99DB18181892B8DB96F9A838194811C
:100230009093BC008093BB0081E0898390EB9A830C
:100240001B828C8380E48D838FEF8E83CE01049696
:100250000E948200CE0101960E94820078946E9ADC
:1002600026960FB6F894DEBF0FBECDBFDF91CF91BB
:10027000089590916000913029F48FB91092600038
:1002800080E0089581E00895FC0190916000913034
:1002900031F48FB180831092600080E0089581E096
:1002A00008959093BC008093BB0008951F920F9215
:1002B0000FB60F9211242F933F934F935F936F9339
:1002C0007F938F939F93AF93BF93EF93FF9381E0BF
:1002D00080936000E091BB00F091BC000995FF9114
:1002E000EF91BF91AF919F918F917F916F915F91AE
:1002F0004F913F912F910F900FBE0F901F90189527
:100300001F920F920FB60F9211242F933F934F938A
:100310005F936F937F938F939F93AF93BF93EF936D
:10032000FF93E0916C00F0916D00309709F0099512
:10033000FF91EF91BF91AF919F918F917F916F91BD
:100340005F914F913F912F910F900FBE0F901F9093
:1003500018951F920F920FB60F9211242F933F936F
:100360004F935F936F937F938F939F93AF93BF93BD
:10037000EF93FF93E0916A00F0916B00309709F0E2
:100380000995FF91EF91BF91AF919F918F917F91CF
:100390006F915F914F913F912F910F900FBE0F90F2
:1003A0001F9018951F920F920FB60F9211242F9342
:1003B0003F934F935F936F937F938F939F93AF93ED
:1003C000BF93EF93FF93E0916400F0916500309745
:1003D00009F00995FF91EF91BF91AF919F918F9196
:1003E0007F916F915F914F913F912F910F900FBE31
:1003F0000F901F9018951F920F920FB60F92112415
:100400002F933F934F935F936F937F938F939F931C
:10041000AF93BF93EF93FF93E0916200F09163007D
:10042000309709F00995FF91EF91BF91AF919F919E
:100430008F917F916F915F914F913F912F910F908D
:100440000FBE0F901F9018951F920F920FB60F922C
:1004500011242F933F934F935F936F937F938F93C9
:100460009F93AF93BF93EF93FF93E0916800F09158
:100470006900309709F00995FF91EF91BF91AF9115
:100480009F918F917F916F915F914F913F912F91AC
:100490000F900FBE0F901F9018951F920F920FB6DE
:1004A0000F9211242F933F934F935F936F937F93FA
:1004B0008F939F93AF93BF93EF93FF93E091660069
:1004C000F0916700309709F00995FF91EF91BF9186
:1004D000AF919F918F917F916F915F914F913F91DC
:1004E0002F910F900FBE0F901F9018951F920F9293
:1004F0000FB60F9211242F933F934F935F936F93F7
:100500007F938F939F93AF93BF93EF93FF93E0916C
:100510006600F0916700309709F00995FF91EF911F
:10052000BF91AF919F918F917F916F915F914F910B
:100530003F912F910F900FBE0F901F901895CF9263
:10054000DF92EF92FF92CF93DF93EC018F8198853A
:10055000A985BA85880F991FAA1FBB1F880F991FED
:10056000AA1FBB1F9C01AD01220F331F441F551F43
:10057000220F331F441F551F0F2EC12CF4E2DF2E14
:10058000F4EFEF2EF12CF02DC701B6010E946805A3
:10059000215029B98F819885A985BA85880F991F1F
:1005A000AA1FBB1F880F991FAA1FBB1F9C01AD016B
:1005B000220F331F441F551F220F331F441F551F87
:1005C000C701B6010E946805DA01C9010197A109B6
:1005D000B109892F9A2FAB2FBB2780BD9AB1888193
:1005E000892B9E81892B8AB920B58B819D81892B8E
:1005F00080689981892B9A81892B9C81892B822BF8
:1006000080BD8FB780688FBFDF91CF91FF90EF9053
:10061000DF90CF9008958CB108955D9BFECF805DF3
:100620008CB9089590937100809370000895909311
:100630006F0080936E0008951F920F920FB60F9275
:1006400011242F933F934F935F936F937F938F93D7
:100650009F93AF93BF93EF93FF93E0916E00F09160
:100660006F00309709F00995FF91EF91BF91AF911D
:100670009F918F917F916F915F914F913F912F91BA
:100680000F900FBE0F901F9018951F920F920FB6EC
:100690000F9211242F933F934F935F936F937F9308
:1006A0008F939F93AF93BF93EF93FF93E09170006D
:1006B000F0917100309709F00995FF91EF91BF918A
:1006C000AF919F918F917F916F915F914F913F91EA
:1006D0002F910F900FBE0F901F90189580917A0068
:1006E000823049F4E6E7F0E08485958501969587A8
:1006F000848783E084830895CF93DF931F92CDB7DF
:10070000DEB780917800882319F0813029F008C085
:100710000E940B03898304C0CE0101960E9444010C
:10072000898184BD80918200909183000097B1F40B
:1007300089818093750090917500913461F482BF36
:1007400081E080937400E6E7F0E08485958501966A
:100750009587848759C01092740056C081309105E6
:1007600041F58981482F50E020917E0030917F0033
:100770002417350778F410927300E6E7F0E081E083
:10078000848315861486809173000684F785E02D96
:1007900009953AC082BFE6E7F0E0898190E093874F
:1007A00082878485958501969587848784E08483F4
:1007B0002BC09C0122503109409180005091810052
:1007C00024173507A8F48981E6E7F0E046815781D0
:1007D000DA01A20FB31F8C93909172008981890F67
:1007E00080937200848595850196958784870CC0D7
:1007F0002417350749F4E6E7F0E0298125830196BF
:100800009587848785E084830F90DF91CF91089549
:1008100080917A00853099F48091720090917B00EC
:1008200098130DC08BEB82BFE6E7F0E015861486C7
:1008300081E084830684F785E02D80E009950895A2
:10084000CF93DF9380917A00833009F069C0809163
:1008500082009091830081309105A1F4809178000D
:10086000882319F0813031F009C080917E000E9408
:100870000D0304C080917E000E94390182E08093C4
:100880007A004EC020917E0030917F00A9014F5F19
:100890005F4F4817590718F1A6E7B0E00297169680
:1008A000ED91FC911797E80FF91F908115968C91A7
:1008B0001597890F15968C93159712968C9188230E
:1008C00019F0813029F007C080810E940D0303C018
:1008D00080810E94390182E080937A0021C02E5FDE
:1008E0003F4F82179307A1F480917800882319F075
:1008F000813031F009C080917B000E940D0304C05B
:1009000080917B000E94390182E080937A0008C0C8
:10091000C6E7D0E0EE85FF858AE0099581E08C830B
:10092000DF91CF910895CF93DF93CDB7DEB7609776
:100930000FB6F894DEBF0FBECDBF009709F469C0B3
:10094000DC0111968C911197E6E7F0E081839C9190
:10095000908312968C91828321E0248315861486DD
:1009600015821186108613861286882319F081302D
:1009700059F151C040E855E260E070E0488759877E
:100980006A877B8786E08A831D821B821E821C8287
:10099000992319F0913051F011C088E0898380E4E7
:1009A0008F838EE693E00E94120308C080E1898362
:1009B00080E88F838CE793E00E941703CE010196B5
:1009C0000E949F028CE32AC083E08C871E861D86CE
:1009D000992319F0913079F020C08EE693E0988B3E
:1009E0008F87CE010C960E94C2008EE693E00E9493
:1009F00051018CE313C08CE793E0988B8F87CE0175
:100A00000C960E94FD008CE793E00E9451018CE35C
:100A100005C08DE303C080E401C08CE360960FB68F
:100A2000F894DEBF0FBECDBFDF91CF910895892B23
:100A300051F0E6E7F0E0718760875783468381E0F5
:100A40008483378726878DE3089510927A008CE39C
:100A50000895E6E7F0E041E043839783868371875A
:100A60006087378726878281882319F0813029F0B3
:100A700007C081E40E940D0303C081E40E94390194
:100A800082E080937A0080E008950F931F938B019A
:100A90009C01672B682B692B81F417C00196823F5C
:100AA000A8E09A07D9F74F5F5F4F6F4F7F4F40170E
:100AB00051076207730731F408C040E050E0BA0103
:100AC000F0E0E0E08F2F9E2FE9CF1F910F91089566
:100AD000A1E21A2EAA1BBB1BFD010DC0AA1FBB1F42
:100AE000EE1FFF1FA217B307E407F50720F0A21BB4
:100AF000B30BE40BF50B661F771F881F991F1A9421
:100B000069F760957095809590959B01AC01BD014A
:080B1000CF010895F894FFCF16
:020B18000100DA
:00000001FF
