S00B0000544D552E7372656323
S11300000C942A000C9447000C9447000C9447006D
S11300100C94A5020C947C020C9447000C94F702F7
S11300200C9420030C94CE020C9453020C942A02D8
S11300300C9400020C9449030C9447000C94720332
S11300400C9447000C9447000C9447000C94470010
S11300500C94470011241FBECFE5D8E0DEBFCDBF0E
S113006010E0A0E6B0E0EAE3F7E002C005900D92EC
S1130070AE36B107D9F720E0AEE6B0E001C01D927C
S1130080A038B207E1F70E947E010C949B030C9404
S11300900000CF93C82F80FF06C04FEF60E180E0DF
S11300A00E94CD0105C040E060E180E00E94CD01E6
S11300B0C1FF06C04FEF60E280E00E94CD0105C0A1
S11300C040E060E280E00E94CD01C2FF06C04FEF35
S11300D060E480E00E94CD0105C040E060E480E07F
S11300E00E94CD01C3FF06C04FEF60E880E00E948C
S11300F0CD0105C040E060E880E00E94CD0180E0D1
S113010090E0CF910895CF93C82F40E062E080E063
S11301100E94CD018C2F0E9449004FEF68E081E0DE
S11301200E94CD0180E58A95F1F740E068E081E026
S11301300E94CD0180E58A95F1F780E090E0CF91AF
S11301400895CF93DF9300D000D000D0CDB7DEB7B1
S113015081E08C8388E08D838FEF8E8319828B837B
S113016086EF8A83CE0104960E948701CE01019610
S11301700E94870140E062E080E00E94CD0140E0FF
S113018068E081E00E94CD0180E00E9449002FEFE9
S113019088E596E0215080409040E1F700C00000DF
S11301A083E00E9483008FE19EE40197F1F700C091
S11301B0000083E00E94830087E592E00197F1F755
S11301C000C0000083E00E94830082E00E9483005C
S11301D082E00E94830088E00E94830080E00E9405
S11301E083008CE00E94830080E00E94830086E00C
S11301F00E94830080E090E026960FB6F894DEBF5C
S11302000FBECDBFDF91CF910895CF93C82F4FEF8D
S113021062E080E00E94CD018C2F82958F700E9455
S113022049004FEF68E081E00E94CD0180E58A95A6
S1130230F1F740E068E081E00E94CD0180E58A9515
S1130240F1F78C2F8F700E9449004FEF68E081E036
S11302500E94CD0180E58A95F1F740E068E081E0F5
S11302600E94CD0180E58A95F1F780E090E0CF917E
S11302700895CF93813061F4CFE7C60F8C2F829518
S11302808F700E9483008C2F8F700E9483000DC09A
S1130290823059F4CFEBC60F8C2F82958F700E9459
S11302A083008C2F8F700E94830080E090E0CF91B8
S11302B008950F931F93CF93FC018081882359F0F5
S11302C08F01C0E00E940501CF5FF801EC0FF11D22
S11302D080818111F7CF80E090E0CF911F910F9141
S11302E00895CF93DF93EA010E943901CE010E9461
S11302F0590180E090E0DF91CF9108950E94A10020
S113030041E650E061E082E00E947101FFCFFC0110
S1130310892BE9F18081813099F028F08230E9F06D
S1130320833041F137C081812AB3982F90952923D6
S113033092819823822F892B8ABB80E090E00895D4
S1130340818127B3982F9095292392819823822F16
S1130350892B87BB80E090E00895818124B3982F96
S11303609095292392819823822F892B84BB80E046
S113037090E00895818121B3982F9095292392814B
S11303809823822F892B81BB80E090E0089581E03F
S113039090E0089581E090E00895813081F028F0A4
S11303A08230B9F08330F9F028C08BB3962F909542
S11303B089234623482B4BBB80E090E0089588B303
S11303C0962F909589234623482B48BB80E090E0E4
S11303D0089585B3962F909589234623482B45BBD2
S11303E080E090E0089582B3962F90958923462368
S11303F0482B42BB80E090E0089581E090E00895AE
S11304001F920F920FB60F9211242F933F934F9385
S11304105F936F937F938F939F93AF93BF93EF9368
S1130420FF9381E080936000E0917E00F0917F0073
S11304300995FF91EF91BF91AF919F918F917F911A
S11304406F915F914F913F912F910F900FBE0F903D
S11304501F9018951F920F920FB60F9211242F938D
S11304603F934F935F936F937F938F939F93AF9338
S1130470BF93EF93FF93E0917800F0917900309768
S113048009F00995FF91EF91BF91AF919F918F91E1
S11304907F916F915F914F913F912F910F900FBE7C
S11304A00F901F9018951F920F920FB60F92112460
S11304B02F933F934F935F936F937F938F939F9368
S11304C0AF93BF93EF93FF93E0917600F0917700A1
S11304D0309709F00995FF91EF91BF91AF919F91EA
S11304E08F917F916F915F914F913F912F910F90D9
S11304F00FBE0F901F9018951F920F920FB60F9278
S113050011242F933F934F935F936F937F938F9314
S11305109F93AF93BF93EF93FF93E0917000F0919B
S11305207100309709F00995FF91EF91BF91AF9158
S11305309F918F917F916F915F914F913F912F91F7
S11305400F900FBE0F901F9018951F920F920FB629
S11305500F9211242F933F934F935F936F937F9345
S11305608F939F93AF93BF93EF93FF93E0916E00AC
S1130570F0916F00309709F00995FF91EF91BF91C9
S1130580AF919F918F917F916F915F914F913F9127
S11305902F910F900FBE0F901F9018951F920F92DE
S11305A00FB60F9211242F933F934F935F936F9342
S11305B07F938F939F93AF93BF93EF93FF93E091B8
S11305C07400F0917500309709F00995FF91EF914F
S11305D0BF91AF919F918F917F916F915F914F9157
S11305E03F912F910F900FBE0F901F9018951F925F
S11305F00F920FB60F9211242F933F934F935F9353
S11306006F937F938F939F93AF93BF93EF93FF93D6
S1130610E0917200F0917300309709F00995FF9111
S1130620EF91BF91AF919F918F917F916F915F9166
S11306304F913F912F910F900FBE0F901F901895DF
S11306401F920F920FB60F9211242F933F934F9343
S11306505F936F937F938F939F93AF93BF93EF9326
S1130660FF93E0917200F0917300309709F00995BF
S1130670FF91EF91BF91AF919F918F917F916F9176
S11306805F914F913F912F910F900FBE0F901F904C
S113069018951F920F920FB60F9211242F933F9328
S11306A04F935F936F937F938F939F93AF93BF9376
S11306B0EF93FF93E0917A00F0917B00309709F07B
S11306C00995FF91EF91BF91AF919F918F917F9188
S11306D06F915F914F913F912F910F900FBE0F90AB
S11306E01F9018951F920F920FB60F9211242F93FB
S11306F03F934F935F936F937F938F939F93AF93A6
S1130700BF93EF93FF93E0917C00F0917D003097CD
S113071009F00995FF91EF91BF91AF919F918F914E
S11307207F916F915F914F913F912F910F900FBEE9
S10D07300F901F901895F894FFCF66
S111073A014F4D472047472120495A490000EE
S9030000FC
