S00B0000544D552E7372656323
S11300000C9442000C945F000C945F000C945F000D
S11300100C94F6030C94CD030C945F000C944804E8
S11300200C9471040C941F040C94A4030C947B038F
S11300300C94A0010C949A040C945F000C94C304D7
S11300400C945F000C945F000C945F000C945F00B0
S11300500C945F0004022B0209020F0214021A021C
S1130060200225027502AE027C0285028C029502F2
S11300709E02A502F7022003FC02020308030E03FA
S113008014031A0311241FBECFE5D8E0DEBFCDBF91
S113009010E0A0E6B0E0E2E4FEE002C005900D92BC
S11300A0A636B107D9F720E0A6E6B0E001C01D925C
S11300B0AE3FB207E1F70E94AB000C941F070C940B
S11300C000000895EEEEF0E0618180810E946501F8
S11300D00895EBEEF0E0618180810E94650108954E
S11300E0E1EFF0E0618180810E94650108950F9342
S11300F01F93CF93DF93EEEEF0E013E010830FEF46
S1130100028380E18183CF010E94EC00EBEEF0E0FA
S11301101083028380E28183CF010E94EC00C1EF4F
S1130120D0E018830A8380E48983CE010E94EC0026
S11301304FEF698188810E943201E9EFF0E0028388
S1130140108381E08183CF010E94EC00DF91CF9185
S11301501F910F9108950E947700E4EFF0E081E091
S113016080831182CF010E9408050F2EF1E6AF2E85
S1130170F0E0BF2EF02D65010F2EF5E0EF2EF02DEF
S113018004E610E020E030E041E064E670E082E65E
S113019090E00E946F050F2EFFE0EF2EF02D0CE291
S11301A011E020E030E041E06EE670E089E690E0A6
S11301B00E946F050F2EF9E1EF2EF02D08EB1BE0E6
S11301C020E030E040E068E770E080E790E00E94E3
S11301D06F050E943606FDCFFC01892BE9F1808171
S11301E0813099F028F08230E9F0833041F137C052
S11301F081812AB3982F9095292392819823822F65
S1130200892B8ABB80E090E00895818127B3982FE1
S11302109095292392819823822F892B87BB80E094
S113022090E00895818124B3982F90952923928199
S11302309823822F892B84BB80E090E008958181EC
S113024021B3982F9095292392819823822F892B6B
S113025081BB80E090E0089581E090E0089581E022
S113026090E00895813081F028F08230B9F0833035
S1130270F9F028C08BB3962F909589234623482BF9
S11302804BBB80E090E0089588B3962F9095892326
S11302904623482B48BB80E090E0089585B3962F11
S11302A0909589234623482B45BB80E090E0089530
S11302B082B3962F909589234623482B42BB80E036
S11302C090E0089581E090E00895813091F028F065
S11302D08230D9F0833029F130C08BB39BB3262F01
S11302E02095922380956823692B6BBB80E090E076
S11302F0089588B398B3262F209592238095682378
S1130300692B68BB80E090E0089585B395B3262FF0
S11303102095922380956823692B65BB80E090E04B
S1130320089582B392B3262F209592238095682353
S1130330692B62BB80E090E0089581E090E008952D
S11303401F920F920FB60F9211242F933F934F9346
S11303505F936F937F938F939F93AF93BF93EF9329
S1130360FF9381E080936000E091FC00F091FD0038
S11303700995FF91EF91BF91AF919F918F917F91DB
S11303806F915F914F913F912F910F900FBE0F90FE
S11303901F901895FC01892B09F45CC18081813080
S11303A009F46FC020F0823009F4F8C056C188E027
S11303B083BF1CBE89B78C7F89BF8281882319F0D3
S11303C0813021F00FC089B789BF0CC089B7826022
S11303D089BF8FB780688FBF8481958190936F00A8
S11303E080936E0081818130D9F118F08230F1F16F
S11303F043C0E3818E2F90E08830910560F5FC01C5
S1130400E65DFF4F0C9419071092750080E090E0B0
S1130410089582E08093750080E090E00895109242
S1130420750081E090E0089583E08093750080E09A
S113043090E0089584E08093750080E090E0089552
S11304401092750081E090E0089585E08093750036
S113045080E090E008951092750081E090E00895A6
S113046087E08093750080E090E0089586E08093B3
S1130470750080E090E008951092750081E090E0AE
S1130480089588E090E09FBD8EBD1DBC1CBC1BBCC4
S11304901ABC89B7837C89BF8281882319F0813093
S11304A021F00FC089B789BF0CC089B7806189BFAB
S11304B08FB780688FBF8481958190936B00809300
S11304C06A008181813009F450C020F0823009F43F
S11304D055C05DC0E3818E2F90E088309105F0F522
S11304E0FC01EE5CFF4F0C941907109274001092FB
S11304F0730080E090E0089582E090E090937400AF
S11305008093730080E090E008951092740010923C
S1130510730081E090E0089583E090E0909374008C
S11305208093730080E090E0089584E090E09093DD
S113053074008093730080E090E00895109274003A
S11305401092730081E090E0089585E090E090932C
S113055074008093730080E090E00895109274001A
S11305601092730081E090E0089587E090E090930A
S113057074008093730080E090E0089586E090E03A
S1130580909374008093730080E090E0089510923B
S113059074001092730081E090E0089588E085BDB6
S11305A014BC89B7837C89BF8281882319F0813088
S11305B021F00FC089B789BF0CC089B7806889BF93
S11305C08FB780688FBF84819581909367008093F3
S11305D066008181811139C0E3818E2F90E08830DB
S11305E0910570F5FC01E65CFF4F0C94190710921D
S11305F0720080E090E0089582E08093720080E0D1
S113060090E0089583E08093720080E090E0089584
S113061084E08093720080E090E0089585E0809308
S1130620720080E090E0089586E08093720080E09C
S113063090E0089587E08093720080E090E0089550
S11306401092720081E090E008951092720081E0AF
S113065090E0089581E090E0089581E090E00895AD
S1130660813091F018F0823001F12DC06F3F710597
S113067009F060F512BE6CBF93B780917500892BA9
S113068083BF80E090E008951DBC1CBC7BBD6ABDA7
S11306902EB53FB58091730090917400822B932BFB
S11306A09FBD8EBD80E090E008956F3F710509F015
S11306B080F414BC63BD95B580917200892B85BD0F
S11306C080E090E0089581E090E0089581E090E07A
S11306D0089581E090E0089590936F0080936E00F8
S11306E008959093670080936600089590936B003B
S11306F080936A0008951F920F920FB60F921124EF
S11307002F933F934F935F936F937F938F939F9315
S1130710AF93BF93EF93FF93E0917000F09171005A
S1130720309709F00995FF91EF91BF91AF919F9197
S11307308F917F916F915F914F913F912F910F9086
S11307400FBE0F901F9018951F920F920FB60F9225
S113075011242F933F934F935F936F937F938F93C2
S11307609F93AF93BF93EF93FF93E0916E00F0914B
S11307706F00309709F00995FF91EF91BF91AF9108
S11307809F918F917F916F915F914F913F912F91A5
S11307900F900FBE0F901F9018951F920F920FB6D7
S11307A00F9211242F933F934F935F936F937F93F3
S11307B08F939F93AF93BF93EF93FF93E091680060
S11307C0F0916900309709F00995FF91EF91BF917D
S11307D0AF919F918F917F916F915F914F913F91D5
S11307E02F910F900FBE0F901F9018951F920F928C
S11307F00FB60F9211242F933F934F935F936F93F0
S11308007F938F939F93AF93BF93EF93FF93E09165
S11308106600F0916700309709F00995FF91EF9118
S1130820BF91AF919F918F917F916F915F914F9104
S11308303F912F910F900FBE0F901F9018951F920C
S11308400F920FB60F9211242F933F934F935F9300
S11308506F937F938F939F93AF93BF93EF93FF9384
S1130860E0916C00F0916D00309709F00995FF91CB
S1130870EF91BF91AF919F918F917F916F915F9114
S11308804F913F912F910F900FBE0F901F9018958D
S11308901F920F920FB60F9211242F933F934F93F1
S11308A05F936F937F938F939F93AF93BF93EF93D4
S11308B0FF93E0916A00F0916B00309709F009957D
S11308C0FF91EF91BF91AF919F918F917F916F9124
S11308D05F914F913F912F910F900FBE0F901F90FA
S11308E018951F920F920FB60F9211242F933F93D6
S11308F04F935F936F937F938F939F93AF93BF9324
S1130900EF93FF93E0916A00F0916B00309709F048
S11309100995FF91EF91BF91AF919F918F917F9135
S11309206F915F914F913F912F910F900FBE0F9058
S11309301F9018951F920F920FB60F9211242F93A8
S11309403F934F935F936F937F938F939F93AF9353
S1130950BF93EF93FF93E0917600F0917700309787
S113096009F00995FF91EF91BF91AF919F918F91FC
S11309707F916F915F914F913F912F910F900FBE97
S11309800F901F9018951F920F920FB60F9211247B
S11309902F933F934F935F936F937F938F939F9383
S11309A0AF93BF93EF93FF93E0917800F0917900B8
S11309B0309709F00995FF91EF91BF91AF919F9105
S11309C08F917F916F915F914F913F912F910F90F4
S11309D00FBE0F901F90189580917A0090917B0024
S11309E0019690937B0080937A0020917A00309155
S11309F07B0080917C0090917D002817390739F4A1
S1130A0081E080937E0010927B0010927A0008951A
S1130A10009709F45EC0FC01A1E6B0E08181119663
S1130A208C93119780818C932CEE34E014963C9334
S1130A302E93139712961C9290E090937D008093CE
S1130A407C00A5EEB0E011961C92119784E01396F9
S1130A508C93139781E012968C93129715963C937E
S1130A602E9314978181813059F018F0823081F0EF
S1130A7033C01092E5008CEE94E00E946C030FC02A
S1130A8081E08093E5008CEE94E00E94760307C039
S1130A9082E08093E5008CEE94E00E94710385EE81
S1130AA090E00E94CA016AEF70E08091E5000E9424
S1130AB03003E2E9F0E081EF90E01082DF011C975F
S1130AC01D921C927396E817F907B9F780E090E03D
S1130AD0089589EC90E008958CEC90E00895AF922D
S1130AE0BF92CF92DF92EF920F931F93CF93DF9336
S1130AF0FC0190916300923008F09AC0309709F499
S1130B009AC0CD2809F49AC0AB2809F49AC0809100
S1130B107F0090918000059749F080919700909113
S1130B2098008617970709F042C08EC08091920002
S1130B30882341F0A5EAB0E081E090E05C91511196
S1130B402EC002C080E090E053E1589FD001599F2D
S1130B50B00D1124AA57BF4F1196FC93EE9316962D
S1130B60EC92169717964C93179718960D931D931E
S1130B702D933C931B9721E01C962C931C971D9658
S1130B801D921D921D921C92509752967C936E93C7
S1130B905197059709F45BC080E090E05DC0019631
S1130BA053968530910551F68FEC90E055C0AAEA32
S1130BB0B0E0C6EFD0E08D919C911197861797070E
S1130BC009F448C05396AC17BD07A9F780917F007C
S1130BD090918000DC011196B0938000A0937F0077
S1130BE053E1589FD001599FB00D1124AA57BF4F0C
S1130BF01196FC93EE931696EC92169717964C93D7
S1130C00179718960D931D932D933C931B9781E092
S1130C101C968C931C971D961D921D921D921C92DE
S1130C20509752967C936E93519780E090E014C055
S1130C308AEC90E011C089EC90E00EC089EC90E061
S1130C400BC089EC90E008C08EEC90E005C08FECFE
S1130C5090E002C08EEC90E0DF91CF911F910F9154
S1130C60EF90DF90CF90BF90AF900895AF92BF9276
S1130C70CF92DF92EF92FF920F931F93CF93DF9364
S1130C8080917E00882309F4C9C0E1E8F0E08FEF89
S1130C9080838183828383838483C6E8D0E002E9EE
S1130CA010E0F12CE12C40917C0050917D008D8569
S1130CB09E85AF85B889840F951FA11DB11D8D87B1
S1130CC09E87AF87B88B488559856A857B8584174D
S1130CD09507A607B707B0F1A880B9804A815B8160
S1130CE0CC80DD80F801D80115978C918130F1F426
S1130CF08081813039F51D861E861F86188A8E0DE7
S1130D00EE2DF0E0EF57FF4FF082E82FF0E0E058CF
S1130D10FF4F908194BDFFE32DE033E0F15020407C
S1130D203040E1F700C00000E82E0CC081110AC079
S1130D308081813039F41082FA010995F501099511
S1130D40F60109956396F3940D5E1F4FF5E0FF12CB
S1130D50AACF809181008F3F09F45EC00F2EF1E885
S1130D60CF2EF0E0DF2EF02DB601E601FF24F39440
S1130D7003E1FB012191BF012F3FF9F03F2D832FA8
S1130D8090E0FC01EF57FF4F10812003D0011124A4
S1130D90AA57BF4F1003F0011124EA57FF4F1696CC
S1130DA0AC91E681EA1728F41883FC01EF57FF4F52
S1130DB020833F5F28812F3F11F72196F394FB0195
S1130DC080818F3FB1F6209181002F3F29F113E1FB
S1130DD02103F0011124EA57FF4F0280F381E02D33
S1130DE00995E601F60121916F012103F001112417
S1130DF0EA57FF4F0190F081E02D099528812103E6
S1130E00F0011124EA57FF4F0480F581E02D099584
S1130E10F60120812F3FE1F610927E00DF91CF9101
S1130E201F910F91FF90EF90DF90CF90BF90AF9004
S1130E300895EE0FFF1F0590F491E02D0994F894A6
S1050E40FFCFDE
S1090E42010000020000A3
S9030000FC
