:100000000C9442000C945F000C945F000C945F0011
:100010000C9488030C945F030C945F000C94DA0337
:100020000C9403040C94B1030C9436030C940D034C
:100030000C945F000C945F000C945F000C945F00C4
:100040000C945F000C945F000C945F000C945F00B4
:100050000C945F00BD01DD01C101C601CA01CF01E1
:10006000D401D801230255022902310237023F028E
:1000700047024D029A02BC029E02A302A802AD02F0
:10008000B202B70211241FBECFE5D8E0DEBFCDBF5C
:1000900010E0A0E6B0E0EAECFBE002C005900D92B3
:1000A000A636B107D9F720E0A6E6B0E001C01D9260
:1000B000A73DB207E1F70E94A6000C94E3050C945B
:1000C0000000E1EDF0E0618180810E944D01089522
:1000D000E9ECF0E0618180810E944D010895E4ED3A
:1000E000F0E0618180810E944D01089584E690E0F6
:1000F0000E945B0508950F931F93CF93DF93E1ED6B
:10010000F0E003E000831FEF128380E18183CF01E1
:100110000E94DF00E9ECF0E00083128380E281833B
:10012000CF010E94DF00C4EDD0E008831A8380E491
:100130008983CE010E94DF004FEF698188810E9490
:100140001F01DF91CF911F910F910895ECECF0E02A
:1001500081E080831182CF010E9448040E947B00CD
:1001600004E610E020E030E041E064E670E081E683
:1001700090E00E94AC040CE211E020E030E041E0AD
:100180006EE670E088E690E00E94AC0408EB1BE0AD
:1001900020E030E040E068E770E08FE690E00E9409
:1001A000AC0408E813E120E030E040E062E870E0F1
:1001B00086E790E00E94AC040E948605FDCFFC011A
:1001C000892BC9F18081813091F028F08230D9F0FB
:1001D000833029F132C081812AB3982F9095292349
:1001E00092819823822F892B8ABB80E00895818198
:1001F00027B3982F9095292392819823822F892BBA
:1002000087BB80E00895818124B3982F909529239E
:1002100092819823822F892B84BB80E0089581816D
:1002200021B3982F9095292392819823822F892B8F
:1002300081BB80E0089581E0089581E008958130D8
:1002400079F028F08230A9F08330E1F024C08BB33C
:10025000962F909589234623482B4BBB80E0089529
:1002600088B3962F909589234623482B48BB80E07E
:10027000089585B3962F909589234623482B45BB37
:1002800080E0089582B3962F909589234623482BCA
:1002900042BB80E0089581E00895813089F028F024
:1002A0008230C9F0833011F12CC08BB39BB3262F61
:1002B0002095922380956823692B6BBB80E008957D
:1002C00088B398B3262F2095922380956823692BB5
:1002D00068BB80E0089585B395B3262F20959223BF
:1002E00080956823692B65BB80E0089582B392B343
:1002F000262F2095922380956823692B62BB80E08E
:10030000089581E00895FC01892B09F43DC18081A5
:10031000813009F464C020F0823009F4E2C036C1B3
:1003200088E083BF1CBE89B78C7F89BF8281882308
:1003300019F0813021F00FC089B789BF0CC089B78F
:10034000826089BF8FB780688FBF848195819093C9
:100350006F0080936E008181813099F118F08230B6
:10036000A9F139C0E3818E2F90E08830910528F5FE
:10037000FC01E65DFF4F0C94DD051092750080E0F6
:10038000089582E08093750080E0089510927500D2
:1003900081E0089583E08093750080E0089584E013
:1003A0008093750080E008951092750081E00895B3
:1003B00085E08093750080E008951092750081E0DB
:1003C000089587E08093750080E0089586E080932B
:1003D000750080E008951092750081E0089588E02E
:1003E00090E09FBD8EBD1DBC1CBC1BBC1ABC89B758
:1003F000837C89BF8281882319F0813021F00FC06E
:1004000089B789BF0CC089B7806189BF8FB7806801
:100410008FBF8481958190936B0080936A00818166
:10042000813009F448C020F0823009F44CC053C038
:10043000E3818E2F90E088309105B8F5FC01EE5CE9
:10044000FF4F0C94DD05109274001092730080E051
:10045000089582E090E0909374008093730080E0B0
:100460000895109274001092730081E0089583E063
:1004700090E0909374008093730080E0089584E08E
:1004800090E0909374008093730080E00895109240
:1004900074001092730081E0089585E090E09093DD
:1004A00074008093730080E008951092740010929D
:1004B000730081E0089587E090E09093740080934A
:1004C000730080E0089586E090E09093740080933C
:1004D000730080E00895109274001092730081E020
:1004E000089588E085BD14BC89B7837C89BF82816B
:1004F000882319F0813021F00FC089B789BF0CC063
:1005000089B7806889BF8FB780688FBF84819581E4
:1005100090936700809366008181811131C0E381EF
:100520008E2F90E08830910538F5FC01E65CFF4F96
:100530000C94DD051092720080E0089582E08093B3
:10054000720080E0089583E08093720080E0089557
:1005500084E08093720080E0089585E080937200CB
:1005600080E0089586E08093720080E0089587E03F
:100570008093720080E008951092720081E00895E7
:100580001092720081E0089581E0089581E008955D
:10059000813089F018F08230F1F02AC06F3F710588
:1005A00009F040F512BE6CBF93B780917500892B9E
:1005B00083BF80E008951DBC1CBC7BBD6ABD2EB509
:1005C0003FB58091730090917400822B932B9FBD57
:1005D0008EBD80E008956F3F710509F068F414BC8A
:1005E00063BD95B580917200892B85BD80E008952B
:1005F00081E0089581E0089581E0089590936F006F
:1006000080936E000895909367008093660008952C
:1006100090936B0080936A0008951F920F920FB61B
:100620000F9211242F933F934F935F936F937F9378
:100630008F939F93AF93BF93EF93FF93E0917000DD
:10064000F0917100309709F00995FF91EF91BF91FA
:10065000AF919F918F917F916F915F914F913F915A
:100660002F910F900FBE0F901F9018951F920F9211
:100670000FB60F9211242F933F934F935F936F9375
:100680007F938F939F93AF93BF93EF93FF93E091EB
:100690006E00F0916F00309709F00995FF91EF918E
:1006A000BF91AF919F918F917F916F915F914F918A
:1006B0003F912F910F900FBE0F901F9018951F9292
:1006C0000F920FB60F9211242F933F934F935F9386
:1006D0006F937F938F939F93AF93BF93EF93FF930A
:1006E000E0916800F0916900309709F00995FF9159
:1006F000EF91BF91AF919F918F917F916F915F919A
:100700004F913F912F910F900FBE0F901F90189512
:100710001F920F920FB60F9211242F933F934F9376
:100720005F936F937F938F939F93AF93BF93EF9359
:10073000FF93E0916600F0916700309709F009950A
:10074000FF91EF91BF91AF919F918F917F916F91A9
:100750005F914F913F912F910F900FBE0F901F907F
:1007600018951F920F920FB60F9211242F933F935B
:100770004F935F936F937F938F939F93AF93BF93A9
:10078000EF93FF93E0916C00F0916D00309709F0CA
:100790000995FF91EF91BF91AF919F918F917F91BB
:1007A0006F915F914F913F912F910F900FBE0F90DE
:1007B0001F9018951F920F920FB60F9211242F932E
:1007C0003F934F935F936F937F938F939F93AF93D9
:1007D000BF93EF93FF93E0916A00F0916B00309725
:1007E00009F00995FF91EF91BF91AF919F918F9182
:1007F0007F916F915F914F913F912F910F900FBE1D
:100800000F901F9018951F920F920FB60F92112400
:100810002F933F934F935F936F937F938F939F9308
:10082000AF93BF93EF93FF93E0916A00F0916B0059
:10083000309709F00995FF91EF91BF91AF919F918A
:100840008F917F916F915F914F913F912F910F9079
:100850000FBE0F901F9018958091760090917700B1
:1008600001969093770080937600209176003091E6
:10087000770080917800909179002817390739F432
:1008800081E080937A0010927700109276000895AC
:10089000009709F45DC0FC01A0E6B0E081811196EB
:1008A0008C93119780818C932CE234E014963C93C6
:1008B0002E93139712961C9290E090937900809358
:1008C0007800A3ECB0E011961C92119784E0139687
:1008D0008C93139781E012968C93129715963C9304
:1008E0002E9314978181813059F018F0823081F075
:1008F00031C01092C3008CE294E00E94FE020FC04F
:1009000081E08093C3008CE294E00E94080307C05A
:1009100082E08093C3008CE294E00E94030383ECA6
:1009200090E00E9483016AEF70E08091C3000E9412
:10093000C802E4E8F0E08AEC90E01082DF0117974B
:100940001D921C923E96E817F907B9F780E00895CA
:1009500085E1089588E108950F931F93CF93DF9366
:10096000FC0190916200923008F097C0309709F432
:1009700096C080917B0090917C00059749F0809112
:10098000890090918A008617970709F043C089C0B3
:1009900080918400882341F0A2E9B0E081E090E0FA
:1009A0005C91511130C002C080E090E0EC01CC0FAE
:1009B000DD1FDE01AA0FBB1FAA0FBB1FAA0FBB1FA3
:1009C000AC1BBD0BA358BF4F1196FC93EE93129630
:1009D0004C93129713960D931D932D933C9316975A
:1009E00021E017962C93179718961D921D921D9231
:1009F0001C921B971D967C936E931C97059709F488
:100A000052C080E053C001961E968530910541F694
:100A10008BE14CC0ADE7B0E0C5EBD0E05A968D91CC
:100A20009C915B978617970709F43FC01E96AC17F9
:100A3000BD07A1F780917B0090917C00DC011196AD
:100A4000B0937C00A0937B00880F991FDC01AA0F54
:100A5000BB1FAA0FBB1FAA0FBB1FA81BB90BA35814
:100A6000BF4F1196FC93EE9312964C9312971396E8
:100A70000D931D932D933C93169781E017968C93BD
:100A8000179718961D921D921D921C921B971D96EA
:100A90007C936E931C9780E009C086E107C085E1D6
:100AA00005C08AE103C08BE101C08AE1DF91CF91EB
:100AB0001F910F9108952091890030918A00281785
:100AC000390751F0EDE7F0E021E030E0428D538D41
:100AD0004817590799F402C020E030E0220F331F75
:100AE000F901EE0FFF1FEE0FFF1FEE0FFF1FE21BBE
:100AF000F30BE358FF4F178280E008952F5F3F4FBD
:100B00003E962530310511F781E00895EF92FF926E
:100B10000F931F93CF93DF9380917A00882309F47A
:100B200045C0CDE7D0E004E810E00F2EF3ECEF2E47
:100B3000F0E0FF2EF02D40917800509179008885EB
:100B40009985AA85BB85840F951FA11DB11D888736
:100B50009987AA87BB874B815C816D817E818417D1
:100B60009507A607B707D0F048815981F801D80149
:100B700015978C91813051F48081813079F41886F9
:100B800019861A861B86FA01099508C0811106C0CC
:100B90008081813019F41082FA0109952E96025F46
:100BA0001F4FCE15DF0539F610927A00DF91CF91F5
:100BB0001F910F91FF90EF900895EE0FFF1F05908A
:0A0BC000F491E02D0994F894FFCFA2
:060BCA0000000200000023
:00000001FF
