:100000000C942A000C9447000C9447000C94470071
:100010000C94FE000C94D5000C9447000C945001F5
:100020000C9479010C9427010C94AC000C9483007F
:100030000C945C000C942B020C9447000C9454021A
:100040000C9447000C9447000C9447000C94470014
:100050000C94470011241FBECFE5D8E0DEBFCDBF12
:1000600010E0A0E6B0E0EEE0F6E002C005900D92F0
:10007000A238B107D9F720E0A2E8B0E001C01D9294
:10008000A03AB207E1F70E9449000C9405030C94D2
:100090000000CF93DF9300D01F92CDB7DEB781E091
:1000A0008A8319821B82CE0101960E94810280E61A
:1000B00090E00E941202FFCF1F920F920FB60F9294
:1000C00011242F933F934F935F936F937F938F935D
:1000D0009F93AF93BF93EF93FF93E0919E00F091B6
:1000E0009F000995FF91EF91BF91AF919F918F91E3
:1000F0007F916F915F914F913F912F910F900FBE24
:100100000F901F9018951F920F920FB60F92112407
:100110002F933F934F935F936F937F938F939F930F
:10012000AF93BF93EF93FF93E0918C00F0918D001C
:10013000309709F00995FF91EF91BF91AF919F9191
:100140008F917F916F915F914F913F912F910F9080
:100150000FBE0F901F9018951F920F920FB60F921F
:1001600011242F933F934F935F936F937F938F93BC
:100170009F93AF93BF93EF93FF93E0918A00F09129
:100180008B00309709F00995FF91EF91BF91AF91E6
:100190009F918F917F916F915F914F913F912F919F
:1001A0000F900FBE0F901F9018951F920F920FB6D1
:1001B0000F9211242F933F934F935F936F937F93ED
:1001C0008F939F93AF93BF93EF93FF93E09184003E
:1001D000F0918500309709F00995FF91EF91BF915B
:1001E000AF919F918F917F916F915F914F913F91CF
:1001F0002F910F900FBE0F901F9018951F920F9286
:100200000FB60F9211242F933F934F935F936F93E9
:100210007F938F939F93AF93BF93EF93FF93E0915F
:100220008200F0918300309709F00995FF91EF91DA
:10023000BF91AF919F918F917F916F915F914F91FE
:100240003F912F910F900FBE0F901F9018951F9206
:100250000F920FB60F9211242F933F934F935F93FA
:100260006F937F938F939F93AF93BF93EF93FF937E
:10027000E0918800F0918900309709F00995FF918D
:10028000EF91BF91AF919F918F917F916F915F910E
:100290004F913F912F910F900FBE0F901F90189587
:1002A0001F920F920FB60F9211242F933F934F93EB
:1002B0005F936F937F938F939F93AF93BF93EF93CE
:1002C000FF93E0918600F0918700309709F009953F
:1002D000FF91EF91BF91AF919F918F917F916F911E
:1002E0005F914F913F912F910F900FBE0F901F90F4
:1002F00018951F920F920FB60F9211242F933F93D0
:100300004F935F936F937F938F939F93AF93BF931D
:10031000EF93FF93E0918600F0918700309709F00A
:100320000995FF91EF91BF91AF919F918F917F912F
:100330006F915F914F913F912F910F900FBE0F9052
:100340001F901895CF92DF92EF92FF92CF93DF9399
:10035000EC018F819885A985BA85880F991FAA1FFE
:10036000BB1F880F991FAA1FBB1F9C01AD01220F45
:10037000331F441F551F220F331F441F551F0F2EBD
:10038000C12CF4E2DF2EF4EFEF2EF12CF02DC7019B
:10039000B6010E94E302215029B98F819885A98571
:1003A000BA85880F991FAA1FBB1F880F991FAA1F04
:1003B000BB1F9C01AD01220F331F441F551F220F8D
:1003C000331F441F551FC701B6010E94E302DA0123
:1003D000C9010197A109B109892F9A2FAB2FBB271A
:1003E00080BD9AB18881892B9E81892B8AB920B5DD
:1003F0008B819D81892B80689981892B9A81892B9A
:100400009C81892B822B80BD8FB780688FBFDF9145
:10041000CF91FF90EF90DF90CF9008955D9BFECF3E
:100420008CB90895CF93DF93EC018881882331F054
:1004300021960E940E0289918111FBCFDF91CF910D
:1004400008959093910080939000089590938F0069
:1004500080938E0008951F920F920FB60F92112471
:100460002F933F934F935F936F937F938F939F93BC
:10047000AF93BF93EF93FF93E0918E00F0918F00C5
:10048000309709F00995FF91EF91BF91AF919F913E
:100490008F917F916F915F914F913F912F910F902D
:1004A0000FBE0F901F9018951F920F920FB60F92CC
:1004B00011242F933F934F935F936F937F938F9369
:1004C0009F93AF93BF93EF93FF93E0919000F091D0
:1004D0009100309709F00995FF91EF91BF91AF918D
:1004E0009F918F917F916F915F914F913F912F914C
:1004F0000F900FBE0F901F90189585E084BD089552
:100500000895CF93DF93CDB7DEB72B970FB6F8944E
:10051000DEBF0FBECDBFDC01892B09F448C01196A8
:100520008C911197E2E9F0E081839C91908312967F
:100530008C91828321E02483118610861582882382
:1005400021F08130B1F58CE335C040E855E260E040
:1005500070E0488759876A877B8786E08A831D8297
:100560001B821E821C82992319F0913071F019C0F0
:1005700088E0898380E48F838DE792E090939D00EB
:1005800080939C000E9421020CC080E1898380E856
:100590008F8380E892E090939D0080939C000E945E
:1005A0002602CE0101960E94A2018CE303C08DE3D6
:1005B00001C080E42B960FB6F894DEBF0FBECDBF0E
:1005C000DF91CF910895A1E21A2EAA1BBB1BFD015A
:1005D0000DC0AA1FBB1FEE1FFF1FA217B307E40722
:1005E000F50720F0A21BB30BE40BF50B661F771F7A
:1005F000881F991F1A9469F760957095809590955A
:0E0600009B01AC01BD01CF010895F894FFCF1E
:10060E004F4D4720506C7A7A7A205265706F727413
:10061E00204D79204E6F6F62205465616D21200D43
:02062E000A00C0
:00000001FF
