S00B0000544D552E7372656323
S11300000C942A000C9447000C9447000C9447006D
S11300100C943E020C9415020C9447000C9490022C
S11300200C94B9020C9467020C94EC010C94C30177
S11300300C9499010C945E030C9447000C94870370
S11300400C9447000C9447000C9447000C94470010
S11300500C94470011241FBECFE5D8E0DEBFCDBF0E
S113006010E0A0E6B0E0E8EFFAE002C005900D92DF
S1130070A236B107D9F720E0A2E6B0E001C01D9294
S1130080AC3FB207E1F70E94C3000C947A050C94CC
S113009000001092630085E084BD1092620083E941
S11300A090E00E943805E3E9F0E081E0818310826A
S11300B08283CF010E94B4040895CF93809163009A
S11300C0811137C080916200833318F5C0916200BA
S11300D081E08C0F809362000E944E03EC2FF0E0CD
S11300E0E853FF4F8083E0916200F0E0E953FF4F53
S11300F080818D30F1F46091620070E029E430E099
S113010043E950E088EC90E00E943C0510926200C4
S113011010C06091620070E029E430E043E950E0EF
S113012088EC90E00E943C0581E08093630010928B
S11301306200CF910895E3E9F0E081E081831082C9
S11301408283CF010E94B404E8E8F0E080E895E2FD
S1130150A0E0B0E087839087A187B28786E081839F
S1130160148212821582138280E1808380E8868360
S11301708DE590E00E94590388E890E00E94E20235
S11301800E944104FDCF0E949B00FC01892BC9F110
S11301908081813091F028F08230D9F0833029F1C8
S11301A032C021819AB38281322F3823822F8095E5
S11301B08923832B8ABB80E00895218197B38281B0
S11301C0322F3823822F80958923832B87BB80E0AD
S11301D00895218194B38281322F3823822F809510
S11301E08923832B84BB80E00895218191B382818C
S11301F0322F3823822F80958923832B81BB80E083
S1130200089581E0089581E00895CF93DF9300D0AD
S113021000D000D0CDB7DEB7FC011EB81DB86C9A73
S11302209DB18081892B8DB99DB18281892B8DB936
S11302309DB18181892B8DB96F9A8381948190932B
S1130240FB008093FA0081E0898390E49A831B8207
S11302508C8380EB8D838FEF8E83CE0104960E9476
S1130260C500CE0101960E94C50078946E9A269628
S11302700FB6F894DEBF0FBECDBFDF91CF910895C6
S1130280CF93DF9300D000D000D0CDB7DEB7FC0110
S11302901EB81DB88DB18DB99DB18281892B8DB9E0
S11302A09DB18081892B8DB99DB18181892B8DB9B7
S11302B06F9A838194819093FB008093FA0081E08C
S11302C0898390EB9A831B828C8380E48D838FEFE8
S11302D08E83CE0104960E94C500CE0101960E9431
S11302E0C50078946E9A26960FB6F894DEBF0FBEBA
S11302F0CDBFDF91CF91089590916000913029F4A2
S11303008FB91092600080E0089581E00895FC01A7
S113031090916000913031F48FB18083109260002D
S113032080E0089581E008959093FB008093FA00A3
S113033008951F920F920FB60F9211242F933F939B
S11303404F935F936F937F938F939F93AF93BF93D9
S1130350EF93FF9381E080936000E091FA00F091C5
S1130360FB000995FF91EF91BF91AF919F918F9100
S11303707F916F915F914F913F912F910F900FBE9D
S11303800F901F9018951F920F920FB60F92112481
S11303902F933F934F935F936F937F938F939F9389
S11303A0AF93BF93EF93FF93E0916E00F0916F00D2
S11303B0309709F00995FF91EF91BF91AF919F910B
S11303C08F917F916F915F914F913F912F910F90FA
S11303D00FBE0F901F9018951F920F920FB60F9299
S11303E011242F933F934F935F936F937F938F9336
S11303F09F93AF93BF93EF93FF93E0916C00F091C1
S11304006D00309709F00995FF91EF91BF91AF917D
S11304109F918F917F916F915F914F913F912F9118
S11304200F900FBE0F901F9018951F920F920FB64A
S11304300F9211242F933F934F935F936F937F9366
S11304408F939F93AF93BF93EF93FF93E0916600D5
S1130450F0916700309709F00995FF91EF91BF91F2
S1130460AF919F918F917F916F915F914F913F9148
S11304702F910F900FBE0F901F9018951F920F92FF
S11304800FB60F9211242F933F934F935F936F9363
S11304907F938F939F93AF93BF93EF93FF93E091D9
S11304A06400F0916500309709F00995FF91EF9190
S11304B0BF91AF919F918F917F916F915F914F9178
S11304C03F912F910F900FBE0F901F9018951F9280
S11304D00F920FB60F9211242F933F934F935F9374
S11304E06F937F938F939F93AF93BF93EF93FF93F8
S11304F0E0916A00F0916B00309709F00995FF9143
S1130500EF91BF91AF919F918F917F916F915F9187
S11305104F913F912F910F900FBE0F901F90189500
S11305201F920F920FB60F9211242F933F934F9364
S11305305F936F937F938F939F93AF93BF93EF9347
S1130540FF93E0916800F0916900309709F00995F4
S1130550FF91EF91BF91AF919F918F917F916F9197
S11305605F914F913F912F910F900FBE0F901F906D
S113057018951F920F920FB60F9211242F933F9349
S11305804F935F936F937F938F939F93AF93BF9397
S1130590EF93FF93E0916800F0916900309709F0C0
S11305A00995FF91EF91BF91AF919F918F917F91A9
S11305B06F915F914F913F912F910F900FBE0F90CC
S11305C01F901895CF92DF92EF92FF92CF93DF9313
S11305D0EC018F819885A985BA85880F991FAA1F78
S11305E0BB1F880F991FAA1FBB1F9C01AD01220FBF
S11305F0331F441F551F220F331F441F551F0F2E37
S1130600C12CF4E2DF2EF4EFEF2EF12CF02DC70114
S1130610B6010E945805215029B98F819885A98572
S1130620BA85880F991FAA1FBB1F880F991FAA1F7D
S1130630BB1F9C01AD01220F331F441F551F220F06
S1130640331F441F551FC701B6010E945805DA0124
S1130650C9010197A109B109892F9A2FAB2FBB2793
S113066080BD9AB18881892B9E81892B8AB920B556
S11306708B819D81892B80689981892B9A81892B13
S11306809C81892B822B80BD8FB780688FBFDF91BF
S1130690CF91FF90EF90DF90CF9008958CB10895A3
S11306A05D9BFECF8CB90895909373008093720084
S11306B00895909371008093700008951F920F9293
S11306C00FB60F9211242F933F934F935F936F9321
S11306D07F938F939F93AF93BF93EF93FF93E09197
S11306E07000F0917100309709F00995FF91EF9136
S11306F0BF91AF919F918F917F916F915F914F9136
S11307003F912F910F900FBE0F901F9018951F923D
S11307100F920FB60F9211242F933F934F935F9331
S11307206F937F938F939F93AF93BF93EF93FF93B5
S1130730E0917200F0917300309709F00995FF91F0
S1130740EF91BF91AF919F918F917F916F915F9145
S11307504F913F912F910F900FBE0F901F901895BE
S113076080917C00823049F4E8E7F0E08485958547
S113077001969587848783E084830895CF93DF93DC
S11307801F92CDB7DEB780917A00882319F08130AB
S113079029F008C00E944E03898304C0CE0101964B
S11307A00E94870180918400909185000097A1F4B4
S11307B089818093770080917700813451F481E0BE
S11307C08093760081E090E090938500809384008C
S11307D054C01092760051C08130910519F5898179
S11307E090E020918000309181002817390778F437
S11307F010927500E8E7F0E081E0848315861486A2
S1130800809175000684F785E02D099536C0E8E7E8
S1130810F0E09387828782E090E09587848784E084
S113082084832BC09C012250310940918200509155
S1130830830024173507A8F48981E8E7F0E04681AE
S11308405781DA01A20FB31F8C93909174008981B0
S1130850890F809374008485958501969587848794
S11308600CC02417350749F4E8E7F0E02981258313
S113087001969587848785E084830F90DF91CF91DB
S11308800895CF93DF9380917C00833009F069C091
S1130890809184009091850081309105A1F480912C
S11308A07A00882319F0813031F009C080918000EA
S11308B00E94500304C0809180000E947C0182E069
S11308C080937C004EC02091800030918100A9016A
S11308D04F5F5F4F4817590718F1A8E7B0E0029738
S11308E01696ED91FC911797E80FF91F15969C91B8
S11308F015978081890F15968C93159712968C9174
S1130900882319F0813029F007C080810E945003A8
S113091003C080810E947C0182E080937C0021C01E
S11309202E5F3F4F82179307A1F480917A008823AA
S113093019F0813031F009C080917D000E9450038C
S113094004C080917D000E947C0182E080937C0041
S113095008C0C8E7D0E0EE85FF858AE0099581E00C
S11309608C83DF91CF910895CF93DF93CDB7DEB71A
S113097060970FB6F894DEBF0FBECDBF009709F4A1
S113098069C0DC0111968C911197E8E7F0E081834E
S11309909C91908312968C91828321E02483158606
S11309A0148615821186108613861286882319F000
S11309B0813059F151C040E855E260E070E0488769
S11309C059876A877B8786E08A831D821B821E8201
S11309D01C82992319F0913051F011C088E0898369
S11309E080E48F8380EB93E00E94540308C080E18D
S11309F0898380E88F838EEB93E00E945903CE01B4
S1130A0001960E94E2028CE32AC083E08C871E8652
S1130A101D86992319F0913079F020C080EB93E082
S1130A20988B8F87CE010C960E94050180EB93E092
S1130A300E9494018CE313C08EEB93E0988B8F8714
S1130A40CE010C960E9440018EEB93E00E9494012B
S1130A508CE305C08DE303C080E401C08CE36096A1
S1130A600FB6F894DEBF0FBECDBFDF91CF910895CE
S1130A7010927C008CE30895E8E7F0E041E04383C2
S1130A809783868371876087378726878281882347
S1130A9019F0813029F007C081E40E94500303C09B
S1130AA081E40E947C0182E080937C0080E00895D0
S1130AB0A1E21A2EAA1BBB1BFD010DC0AA1FBB1F5E
S1130AC0EE1FFF1FA217B307E407F50720F0A21BD0
S1130AD0B30BE40BF50B661F771F881F991F1A943D
S1130AE069F760957095809590959B01AC01BD0167
S10B0AF0CF010895F894FFCF33
S1050AF80100F7
S9030000FC
