:100000000C9442000C945F000C945F000C945F0011
:100010000C94BF030C9496030C945F000C94110491
:100020000C943A040C94E8030C946D030C94440370
:100030000C9469010C9463040C945F000C948C0480
:100040000C945F000C945F000C945F000C945F00B4
:100050000C945F00CD01F401D201D801DD01E30170
:10006000E901EE013E02770245024E0255025E02B0
:1000700067026E02C002E902C502CB02D102D702BA
:10008000DD02E30211241FBECFE5D8E0DEBFCDBF05
:1000900010E0A0E6B0E0E2E4FEE002C005900D92C0
:1000A000A636B107D9F721E0A6E6B0E001C01D925F
:1000B000A330B207E1F70E94A8000C941F070C942C
:1000C0000000EEEFF0E0618180810E942E01089532
:1000D000E3EFF0E0618180810E942E010895E0EF5E
:1000E000F0E0618180810E942E010895E6EFF0E04A
:1000F000618180810E942E010895CF93DF93E3EF09
:10010000F0E0C3E0C083DFEFD28380E18183CF01E1
:100110000E94E800E0EFF0E0C083D28380E28183B8
:10012000CF010E94E800E6EFF0E0C083D28380E4D4
:100130008183CF010E94E800EEEFF0E0D283C0831C
:1001400081E08183CF010E94E800DF91CF91089583
:100150000E947D00E9EFF0E081E080831182CF0111
:100160000E94D1040F2EF1E6AF2EF0E0BF2EF02D4D
:1001700065010F2EFAE0EF2EF02D02E310E020E0F3
:1001800030E041E064E670E088E690E00E943D05E2
:100190000F2EF5E0EF2EF02D02E310E020E030E02E
:1001A00041E06EE670E08FE690E00E943D056894C5
:1001B000EE24E3F802E310E020E030E041E068E7FD
:1001C00070E086E790E00E943D050E941606FDCF94
:1001D000FC01892BE9F18081813099F028F082308F
:1001E000E9F0833041F137C081812AB3982F90958F
:1001F000292392819823822F892B8ABB80E090E06B
:100200000895818127B3982F90952923928198236F
:10021000822F892B87BB80E090E00895818124B3F1
:10022000982F9095292392819823822F892B84BB24
:1002300080E090E00895818121B3982F9095292343
:1002400092819823822F892B81BB80E090E00895D2
:1002500081E090E0089581E090E00895813091F090
:1002600028F08230D9F0833029F130C08BB39BB3B2
:10027000262F2095922380956823692B6BBB80E005
:1002800090E0089588B398B3262F20959223809507
:100290006823692B68BB80E090E0089585B395B32F
:1002A000262F2095922380956823692B65BB80E0DB
:1002B00090E0089582B392B3262F209592238095E3
:1002C0006823692B62BB80E090E0089581E090E0B4
:1002D00008951F920F920FB60F9211242F933F9300
:1002E0004F935F936F937F938F939F93AF93BF933E
:1002F000EF93FF9381E080936000E0910101F09122
:1003000002010995FF91EF91BF91AF919F918F915C
:100310007F916F915F914F913F912F910F900FBE01
:100320000F901F901895FC01892B09F45CC1808106
:10033000813009F46FC020F0823009F4F8C056C152
:1003400088E083BF1CBE89B78C7F89BF82818823E8
:1003500019F0813021F00FC089B789BF0CC089B76F
:10036000826089BF8FB780688FBF848195819093A9
:100370006F0080936E0081818130D9F118F0823056
:10038000F1F143C0E3818E2F90E08830910560F554
:10039000FC01E65DFF4F0C9419071092750080E098
:1003A00090E0089582E08093750080E090E00895E9
:1003B0001092750081E090E0089583E080937500CD
:1003C00080E090E0089584E08093750080E090E004
:1003D00008951092750081E090E0089585E0809383
:1003E000750080E090E008951092750081E090E043
:1003F000089587E08093750080E090E0089586E09E
:100400008093750080E090E008951092750081E07F
:1004100090E0089588E090E09FBD8EBD1DBC1CBC9F
:100420001BBC1ABC89B7837C89BF8281882319F0E1
:10043000813021F00FC089B789BF0CC089B78061B6
:1004400089BF8FB780688FBF8481958190936B003F
:1004500080936A008181813009F450C020F082309D
:1004600009F455C05DC0E3818E2F90E0883091057E
:10047000F0F5FC01EE5CFF4F0C941907109274002C
:100480001092730080E090E0089582E090E09093F5
:1004900074008093730080E090E0089510927400DF
:1004A0001092730081E090E0089583E090E09093D3
:1004B00074008093730080E090E0089584E090E001
:1004C000909374008093730080E090E00895109200
:1004D00074001092730081E090E0089585E090E050
:1004E000909374008093730080E090E008951092E0
:1004F00074001092730081E090E0089587E090E02E
:10050000909374008093730080E090E0089586E0FB
:1005100090E0909374008093730080E090E00895E1
:10052000109274001092730081E090E0089588E0CA
:1005300085BD14BC89B7837C89BF8281882319F06B
:10054000813021F00FC089B789BF0CC089B780689E
:1005500089BF8FB780688FBF848195819093670032
:10056000809366008181811139C0E3818E2F90E0F4
:100570008830910570F5FC01E65CFF4F0C9419077B
:100580001092720080E090E0089582E08093720003
:1005900080E090E0089583E08093720080E090E036
:1005A000089584E08093720080E090E0089585E0F3
:1005B0008093720080E090E0089586E0809372005E
:1005C00080E090E0089587E08093720080E090E002
:1005D00008951092720081E090E0089510927200E8
:1005E00081E090E0089581E090E0089581E090E05E
:1005F0000895813091F018F0823001F12DC06F3FE5
:10060000710509F060F512BE6CBF93B7809175005B
:10061000892B83BF80E090E008951DBC1CBC7BBD8E
:100620006ABD2EB53FB58091730090917400822B06
:10063000932B9FBD8EBD80E090E008956F3F7105C4
:1006400009F080F414BC63BD95B580917200892BCC
:1006500085BD80E090E0089581E090E0089581E01C
:1006600090E0089581E090E0089590936F0080936A
:100670006E000895909367008093660008959093AC
:100680006B0080936A0008951F920F920FB60F922D
:1006900011242F933F934F935F936F937F938F9387
:1006A0009F93AF93BF93EF93FF93E0917000F0910E
:1006B0007100309709F00995FF91EF91BF91AF91CB
:1006C0009F918F917F916F915F914F913F912F916A
:1006D0000F900FBE0F901F9018951F920F920FB69C
:1006E0000F9211242F933F934F935F936F937F93B8
:1006F0008F939F93AF93BF93EF93FF93E0916E001F
:10070000F0916F00309709F00995FF91EF91BF913B
:10071000AF919F918F917F916F915F914F913F9199
:100720002F910F900FBE0F901F9018951F920F9250
:100730000FB60F9211242F933F934F935F936F93B4
:100740007F938F939F93AF93BF93EF93FF93E0912A
:100750006800F0916900309709F00995FF91EF91D9
:10076000BF91AF919F918F917F916F915F914F91C9
:100770003F912F910F900FBE0F901F9018951F92D1
:100780000F920FB60F9211242F933F934F935F93C5
:100790006F937F938F939F93AF93BF93EF93FF9349
:1007A000E0916600F0916700309709F00995FF919C
:1007B000EF91BF91AF919F918F917F916F915F91D9
:1007C0004F913F912F910F900FBE0F901F90189552
:1007D0001F920F920FB60F9211242F933F934F93B6
:1007E0005F936F937F938F939F93AF93BF93EF9399
:1007F000FF93E0916C00F0916D00309709F009953E
:10080000FF91EF91BF91AF919F918F917F916F91E8
:100810005F914F913F912F910F900FBE0F901F90BE
:1008200018951F920F920FB60F9211242F933F939A
:100830004F935F936F937F938F939F93AF93BF93E8
:10084000EF93FF93E0916A00F0916B00309709F00D
:100850000995FF91EF91BF91AF919F918F917F91FA
:100860006F915F914F913F912F910F900FBE0F901D
:100870001F9018951F920F920FB60F9211242F936D
:100880003F934F935F936F937F938F939F93AF9318
:10089000BF93EF93FF93E0916A00F0916B00309764
:1008A00009F00995FF91EF91BF91AF919F918F91C1
:1008B0007F916F915F914F913F912F910F900FBE5C
:1008C0000F901F9018951F920F920FB60F92112440
:1008D0002F933F934F935F936F937F938F939F9348
:1008E000AF93BF93EF93FF93E0917600F091770081
:1008F000309709F00995FF91EF91BF91AF919F91CA
:100900008F917F916F915F914F913F912F910F90B8
:100910000FBE0F901F9018951F920F920FB60F9257
:1009200011242F933F934F935F936F937F938F93F4
:100930009F93AF93BF93EF93FF93E0917800F09173
:100940007900309709F00995FF91EF91BF91AF9130
:100950009F918F917F916F915F914F913F912F91D7
:100960000F900FBE0F901F90189580917A00909174
:100970007B00019690937B0080937A0020917A000F
:1009800030917B0080917C0090917D002817390781
:1009900039F481E080937E0010927B0010927A00FF
:1009A0000895009709F463C0FC01A1E6B0E08181DD
:1009B00011968C93119780818C9325EB34E01496DB
:1009C0003C932E93139712961C9290E090937D0087
:1009D00080937C00AAEEB0E011961C92119784E0FF
:1009E00013968C93139781E012968C931297159619
:1009F0003C932E9314978181813059F018F0823006
:100A000081F038C01092EA0085EB94E00E94350333
:100A10000FC081E08093EA0085EB94E00E943F03E1
:100A200007C082E08093EA0085EB94E00E943A03DD
:100A30008AEE90E00E9493016AEF70E08091EA00F4
:100A40000E94F902A7E9B0E0EBE8F0E08AEE90E05E
:100A50001C92118210821382128215821482539684
:100A60007396E817F907A1F780E090E0089589EC04
:100A700090E008958CEC90E00895AF92BF92CF92F1
:100A8000DF92EF920F931F93CF93DF93FC0190912E
:100A90006300923008F0ACC0309709F4ACC0C114C8
:100AA000D10409F4ABC0A114B10409F4AAC0809127
:100AB0007F0090918000059749F080919C00909173
:100AC0009D008617970709F04AC09EC08091970045
:100AD000882341F0AAEAB0E081E090E05C915111F6
:100AE00036C002C080E090E053E1589FD001599F8A
:100AF000B00D1124A557BF4F1196FC93EE9313969A
:100B0000DC92CE9212971596BC92AE9214971696DE
:100B1000EC92169717964C93179718960D931D9372
:100B20002D933C931B9721E01C962C931C971D96AC
:100B30001D921D921D921C92509752967C936E931B
:100B40005197059709F463C080E090E065C0019675
:100B500053968530910511F68FEC90E05DC0AFEAB9
:100B6000B0E0CBEFD0E08D919C911197861797075D
:100B700009F450C05396AC17BD07A9F780917F00C8
:100B800090918000DC011196B0938000A0937F00CB
:100B900053E1589FD001599FB00D1124A557BF4F65
:100BA0001196FC93EE931396DC92CE9212971596C3
:100BB000BC92AE9214971696EC92169717964C9399
:100BC000179718960D931D932D933C931B9781E0D7
:100BD0001C968C931C971D961D921D921D921C9223
:100BE000509752967C936E93519780E090E014C09A
:100BF0008AEC90E011C089EC90E00EC089EC90E0A6
:100C00000BC089EC90E008C08EEC90E005C08FEC42
:100C100090E002C08EEC90E0DF91CF911F910F9198
:100C2000EF90DF90CF90BF90AF900895AF92BF92BA
:100C3000CF92DF92EF92FF920F931F93CF93DF93A8
:100C400080917E00882309F4E9C0E1E8F0E08FEFAD
:100C50009FEF91838083938382839583848397839B
:100C6000868391878087E7E9F0E0C2E9D0E010E071
:100C700020E030E060917C0070917D00AF018181C7
:100C80009281A381B481860F971FA11DB11D81831D
:100C90009283A383B483C980DA80EB80FC808C15B7
:100CA0009D05AE05BF0530F188818130A1F48081BA
:100CB000813001F5DA0111961D921D921D921C9250
:100CC0001497A12FB0E0AA0FBB1FAF57BF4F2D93B2
:100CD0003C931F5F0FC081110DC08081813051F4A2
:100CE0001082A12FB0E0AA0FBB1FAF57BF4F2D93AB
:100CF0003C931F5F2F5F3F4F7396639625303105FE
:100D000009F0B8CF8091810090918200019609F49A
:100D100083C00F2EF1E8AF2EF0E0BF2EF02D85013D
:100D200061E070E00F2EF3E1EF2EF02DF62ECB01F7
:100D3000E8012A813B812F3FEFEF3E07A1F1C880F8
:100D4000D980EC9CD001ED9CB00D1124A557BF4F6C
:100D5000E29EF001E39EF00D1124E557FF4F169639
:100D6000AC91E681EA1748F439832883880F991FEC
:100D7000FC01EF57FF4FD182C082F3948F2D90E09A
:100D8000FC01EE0FFF1FEF57FF4F208131812F3FF6
:100D9000FFEF3F07A1F66F5F7F4F0E5F1F4F8A8106
:100DA0009B81019619F680918100909182008F3F7E
:100DB0004FEF940789F113E1189FF001199FF00D8F
:100DC0001124E557FF4F0280F381E02D099575014D
:100DD000D5018D919D915D01189FF001199FF00D36
:100DE0001124E557FF4F0190F081E02D0995F7019F
:100DF00080819181189FF001199FF00D1124E55712
:100E0000FF4F0480F581E02D0995D5018D919C91CE
:100E10008F3FBFEF9B0781F610927E00DF91CF914D
:100E20001F910F91FF90EF90DF90CF90BF90AF9008
:100E30000895EE0FFF1F0590F491E02D0994F894AA
:020E4000FFCFE2
:060E4200010000020000A7
:00000001FF
