S00B0000544D552E7372656323
S11300000C9442000C945F000C945F000C945F000D
S11300100C94E9030C94C0030C945F000C943B040F
S11300200C9464040C9412040C9497030C946E03C3
S11300300C9493010C948D040C945F000C94B604FE
S11300400C945F000C945F000C945F000C945F00B0
S11300500C945F00F7011E02FC01020207020D026C
S1130060130218026802A1026F0278027F0288025A
S113007091029802EA021303EF02F502FB02010364
S113008007030D0311241FBECFE5D8E0DEBFCDBFAB
S113009010E0A0E6B0E0EAE4FDE002C005900D92B5
S11300A0A636B107D9F720E0A6E6B0E001C01D925C
S11300B0AD3DB207E1F70E94A6000C94A3060C9490
S11300C00000E5EDF0E0618180810E94580108950F
S11300D0EDECF0E0618180810E9458010895E8ED23
S11300E0F0E0618180810E945801089584E690E0E7
S11300F00E94190608950F931F93CF93DF93E5EDA4
S1130100F0E003E000831FEF128380E18183CF01DD
S11301100E94DF00EDECF0E00083128380E2818333
S1130120CF010E94DF00C8EDD0E008831A8380E489
S11301308983CE010E94DF004FEF698188810E948C
S11301402501DF91CF911F910F910895E0EDF0E02B
S113015081E080831182CF010E94FB040E947B0016
S113016004E610E020E030E041E064E670E081E67F
S113017090E00E9462050CE211E020E030E041E0F2
S11301806EE670E088E690E00E94620508EB1BE0F2
S113019020E030E040E068E770E08FE690E00E9405
S11301A0620508E813E120E030E040E062E870E036
S11301B086E790E00E9462050E944606FDCFFC019E
S11301C0892BE9F18081813099F028F08230E9F0BF
S11301D0833041F137C081812AB3982F9095292328
S11301E092819823822F892B8ABB80E090E0089526
S11301F0818127B3982F9095292392819823822F68
S1130200892B87BB80E090E00895818124B3982FE7
S11302109095292392819823822F892B84BB80E097
S113022090E00895818121B3982F9095292392819C
S11302309823822F892B81BB80E090E0089581E090
S113024090E0089581E090E00895813081F028F0F5
S11302508230B9F08330F9F028C08BB3962F909593
S113026089234623482B4BBB80E090E0089588B354
S1130270962F909589234623482B48BB80E090E035
S1130280089585B3962F909589234623482B45BB23
S113029080E090E0089582B3962F909589234623B9
S11302A0482B42BB80E090E0089581E090E00895FF
S11302B0813091F028F08230D9F0833029F130C0B8
S11302C08BB39BB3262F2095922380956823692BAB
S11302D06BBB80E090E0089588B398B3262F2095F7
S11302E0922380956823692B68BB80E090E0089591
S11302F085B395B3262F2095922380956823692B87
S113030065BB80E090E0089582B392B3262F2095D8
S1130310922380956823692B62BB80E090E0089566
S113032081E090E008951F920F920FB60F9211246E
S11303302F933F934F935F936F937F938F939F93E9
S1130340AF93BF93EF93FF9381E080936000E091BC
S1130350DB00F091DC000995FF91EF91BF91AF9123
S11303609F918F917F916F915F914F913F912F91C9
S11303700F900FBE0F901F901895FC01892B09F464
S11303805CC18081813009F46FC020F0823009F4AF
S1130390F8C056C188E083BF1CBE89B78C7F89BF73
S11303A08281882319F0813021F00FC089B789BF79
S11303B00CC089B7826089BF8FB780688FBF848182
S11303C0958190936F0080936E0081818130D9F183
S11303D018F08230F1F143C0E3818E2F90E0883031
S11303E0910560F5FC01E65DFF4F0C949D061092AB
S11303F0750080E090E0089582E08093750080E0CD
S113040090E008951092750081E090E0089583E0F3
S11304108093750080E090E0089584E080937500F7
S113042080E090E008951092750081E090E00895D6
S113043085E08093750080E090E008951092750047
S113044081E090E0089587E08093750080E090E07B
S1130450089586E08093750080E090E008951092FE
S1130460750081E090E0089588E090E09FBD8EBD26
S11304701DBC1CBC1BBC1ABC89B7837C89BF828190
S1130480882319F0813021F00FC089B789BF0CC0CF
S113049089B7806189BF8FB780688FBF8481958158
S11304A090936B0080936A008181813009F450C07D
S11304B020F0823009F455C05DC0E3818E2F90E0B6
S11304C088309105F0F5FC01EE5CFF4F0C949D061D
S11304D0109274001092730080E090E0089582E01E
S11304E090E0909374008093730080E090E008950E
S11304F0109274001092730081E090E0089583E0FC
S113050090E0909374008093730080E090E00895ED
S113051084E090E0909374008093730080E090E016
S11305200895109274001092730081E090E0089591
S113053085E090E0909374008093730080E090E0F5
S11305400895109274001092730081E090E0089571
S113055087E090E0909374008093730080E090E0D3
S1130560089586E090E0909374008093730080E097
S113057090E00895109274001092730081E090E06E
S1130580089588E085BD14BC89B7837C89BF8281C6
S1130590882319F0813021F00FC089B789BF0CC0BE
S11305A089B7806889BF8FB780688FBF8481958140
S11305B090936700809366008181811139C0E38143
S11305C08E2F90E08830910570F5FC01E65CFF4FBA
S11305D00C949D061092720080E090E0089582E0F1
S11305E08093720080E090E0089583E0809372002D
S11305F080E090E0089584E08093720080E090E0D1
S1130600089585E08093720080E090E0089586E08C
S11306108093720080E090E0089587E080937200F8
S113062080E090E008951092720081E090E00895D7
S11306301092720081E090E0089581E090E00895C6
S113064081E090E00895813091F018F0823001F15A
S11306502DC06F3F710509F060F512BE6CBF93B7F2
S113066080917500892B83BF80E090E008951DBCC4
S11306701CBC7BBD6ABD2EB53FB5809173009091C3
S11306807400822B932B9FBD8EBD80E090E0089573
S11306906F3F710509F080F414BC63BD95B580917A
S11306A07200892B85BD80E090E0089581E090E0A0
S11306B0089581E090E0089581E090E0089590939A
S11306C06F0080936E000895909367008093660096
S11306D0089590936B0080936A0008951F920F927F
S11306E00FB60F9211242F933F934F935F936F9301
S11306F07F938F939F93AF93BF93EF93FF93E09177
S11307007000F0917100309709F00995FF91EF9115
S1130710BF91AF919F918F917F916F915F914F9115
S11307203F912F910F900FBE0F901F9018951F921D
S11307300F920FB60F9211242F933F934F935F9311
S11307406F937F938F939F93AF93BF93EF93FF9395
S1130750E0916E00F0916F00309709F00995FF91D8
S1130760EF91BF91AF919F918F917F916F915F9125
S11307704F913F912F910F900FBE0F901F9018959E
S11307801F920F920FB60F9211242F933F934F9302
S11307905F936F937F938F939F93AF93BF93EF93E5
S11307A0FF93E0916800F0916900309709F0099592
S11307B0FF91EF91BF91AF919F918F917F916F9135
S11307C05F914F913F912F910F900FBE0F901F900B
S11307D018951F920F920FB60F9211242F933F93E7
S11307E04F935F936F937F938F939F93AF93BF9335
S11307F0EF93FF93E0916600F0916700309709F062
S11308000995FF91EF91BF91AF919F918F917F9146
S11308106F915F914F913F912F910F900FBE0F9069
S11308201F9018951F920F920FB60F9211242F93B9
S11308303F934F935F936F937F938F939F93AF9364
S1130840BF93EF93FF93E0916C00F0916D003097AC
S113085009F00995FF91EF91BF91AF919F918F910D
S11308607F916F915F914F913F912F910F900FBEA8
S11308700F901F9018951F920F920FB60F9211248C
S11308802F933F934F935F936F937F938F939F9394
S1130890AF93BF93EF93FF93E0916A00F0916B00E5
S11308A0309709F00995FF91EF91BF91AF919F9116
S11308B08F917F916F915F914F913F912F910F9005
S11308C00FBE0F901F9018951F920F920FB60F92A4
S11308D011242F933F934F935F936F937F938F9341
S11308E09F93AF93BF93EF93FF93E0916A00F091CE
S11308F06B00309709F00995FF91EF91BF91AF918B
S11309009F918F917F916F915F914F913F912F9123
S11309100F900FBE0F901F9018951F920F920FB655
S11309200F9211242F933F934F935F936F937F9371
S11309308F939F93AF93BF93EF93FF93E0917600D0
S1130940F0917700309709F00995FF91EF91BF91ED
S1130950AF919F918F917F916F915F914F913F9153
S11309602F910F900FBE0F901F9018951F920F920A
S11309700FB60F9211242F933F934F935F936F936E
S11309807F938F939F93AF93BF93EF93FF93E091E4
S11309907800F0917900309709F00995FF91EF9173
S11309A0BF91AF919F918F917F916F915F914F9183
S11309B03F912F910F900FBE0F901F90189580912B
S11309C07A0090917B00019690937B0080937A004B
S11309D020917A0030917B0080917C0090917D0081
S11309E02817390739F481E080937E0010927B0048
S11309F010927A000895009709F45EC0FC01A1E604
S1130A00B0E0818111968C93119780818C932FEDA6
S1130A1034E014963C932E93139712961C9290E014
S1130A2090937D0080937C00A7ECB0E011961C921B
S1130A30119784E013968C93139781E012968C930C
S1130A40129715963C932E9314978181813059F017
S1130A5018F0823081F033C01092C7008FED94E01B
S1130A600E945F030FC081E08093C7008FED94E084
S1130A700E94690307C082E08093C7008FED94E071
S1130A800E94640387EC90E00E94BD016AEF70E06D
S1130A908091C7000E942303E8E8F0E08EEC90E028
S1130AA01082DF0117971D921C923E96E817F907F2
S1130AB0B9F780E090E0089589EC90E008958CEC1B
S1130AC090E008950F931F93CF93DF93FC019091CF
S1130AD06300923008F09AC0309709F49AC080916C
S1130AE07F0090918000059749F080918D0090914E
S1130AF08E008617970709F045C08EC08091880044
S1130B00882341F0A6E9B0E081E090E05C915111C6
S1130B1031C002C080E090E0EC01CC0FDD1FDE01AB
S1130B20AA0FBB1FAA0FBB1FAA0FBB1FAC1BBD0B79
S1130B30AF57BF4F1196FC93EE9312964C931297B6
S1130B4013960D931D932D933C93169721E01796BE
S1130B502C93179718961D921D921D921C921B9709
S1130B601D967C936E931C97059709F458C080E0FA
S1130B7090E05AC001961E968530910539F68FECA7
S1130B8090E052C0A1E8B0E0C9EBD0E05A968D9154
S1130B909C915B978617970709F444C01E96AC177F
S1130BA0BD07A1F780917F0090918000DC01119630
S1130BB0B0938000A0937F00880F991FDC01AA0FD7
S1130BC0BB1FAA0FBB1FAA0FBB1FA81BB90BAF5794
S1130BD0BF4F1196FC93EE9312964C931297139673
S1130BE00D931D932D933C93169781E017968C9348
S1130BF0179718961D921D921D921C921B971D9675
S1130C007C936E931C9780E090E00EC08AEC90E099
S1130C100BC089EC90E008C08EEC90E005C08FEC2E
S1130C2090E002C08EEC90E0DF91CF911F910F9184
S1130C30089520918D0030918E002817390751F0C6
S1130C40E1E8F0E021E030E0428D538D4817590788
S1130C50A1F402C020E030E0220F331FF901EE0FAF
S1130C60FF1FEE0FFF1FEE0FFF1FE21BF30BEF57EB
S1130C70FF4F178280E090E008952F5F3F4F3E962C
S1130C802530310509F781E090E00895EF92FF9255
S1130C900F931F93CF93DF9380917E00882309F4F1
S1130CA045C0C1E8D0E008E810E00F2EF7ECEF2EC5
S1130CB0F0E0FF2EF02D40917C0050917D0088855E
S1130CC09985AA85BB85840F951FA11DB11D8887B1
S1130CD09987AA87BB874B815C816D817E8184174C
S1130CE09507A607B707D0F048815981F801D801C4
S1130CF015978C91813051F48081813079F4188674
S1130D0019861A861B86FA01099508C0811106C046
S1130D108081813019F41082FA0109952E96025FC0
S1130D201F4FCE15DF0539F610927E00DF91CF916B
S1130D301F910F91FF90EF900895EE0FFF1F059004
S10D0D40F491E02D0994F894FFCF1C
S1090D4A0100000200009C
S9030000FC
